{"contracts/BountyEscrow.sol":{"BountyEscrow":{"abi":[{"inputs":[{"internalType":"address","name":"initialOwner","type":"address"}],"stateMutability":"nonpayable","type":"constructor"},{"inputs":[{"internalType":"uint256","name":"bountyId","type":"uint256"}],"name":"AlreadyFinalized","type":"error"},{"inputs":[{"internalType":"uint256","name":"bountyId","type":"uint256"}],"name":"EscrowAlreadyExists","type":"error"},{"inputs":[{"internalType":"uint256","name":"bountyId","type":"uint256"}],"name":"EscrowNotFound","type":"error"},{"inputs":[{"internalType":"uint256","name":"bountyId","type":"uint256"}],"name":"NothingToRelease","type":"error"},{"inputs":[{"internalType":"address","name":"owner","type":"address"}],"name":"OwnableInvalidOwner","type":"error"},{"inputs":[{"internalType":"address","name":"account","type":"address"}],"name":"OwnableUnauthorizedAccount","type":"error"},{"inputs":[],"name":"ReentrancyGuardReentrantCall","type":"error"},{"anonymous":false,"inputs":[{"indexed":true,"internalType":"uint256","name":"bountyId","type":"uint256"},{"indexed":false,"internalType":"string","name":"dagProofHash","type":"string"}],"name":"DagProofAnchored","type":"event"},{"anonymous":false,"inputs":[{"indexed":true,"internalType":"uint256","name":"bountyId","type":"uint256"},{"indexed":true,"internalType":"address","name":"funder","type":"address"},{"indexed":true,"internalType":"address","name":"beneficiary","type":"address"},{"indexed":false,"internalType":"uint256","name":"amount","type":"uint256"}],"name":"EscrowCreated","type":"event"},{"anonymous":false,"inputs":[{"indexed":true,"internalType":"uint256","name":"bountyId","type":"uint256"},{"indexed":true,"internalType":"address","name":"funder","type":"address"},{"indexed":false,"internalType":"uint256","name":"amount","type":"uint256"}],"name":"EscrowRefunded","type":"event"},{"anonymous":false,"inputs":[{"indexed":true,"internalType":"uint256","name":"bountyId","type":"uint256"},{"indexed":true,"internalType":"address","name":"beneficiary","type":"address"},{"indexed":false,"internalType":"uint256","name":"amount","type":"uint256"}],"name":"EscrowReleased","type":"event"},{"anonymous":false,"inputs":[{"indexed":true,"internalType":"address","name":"previousOwner","type":"address"},{"indexed":true,"internalType":"address","name":"newOwner","type":"address"}],"name":"OwnershipTransferred","type":"event"},{"inputs":[{"internalType":"uint256","name":"bountyId","type":"uint256"},{"internalType":"string","name":"dagProofHash","type":"string"}],"name":"anchorDagProof","outputs":[],"stateMutability":"nonpayable","type":"function"},{"inputs":[{"internalType":"uint256","name":"bountyId","type":"uint256"},{"internalType":"address payable","name":"beneficiary","type":"address"}],"name":"createEscrow","outputs":[],"stateMutability":"payable","type":"function"},{"inputs":[{"internalType":"uint256","name":"bountyId","type":"uint256"}],"name":"getEscrow","outputs":[{"components":[{"internalType":"address","name":"funder","type":"address"},{"internalType":"address payable","name":"beneficiary","type":"address"},{"internalType":"uint256","name":"amount","type":"uint256"},{"internalType":"string","name":"dagProofHash","type":"string"},{"internalType":"bool","name":"released","type":"bool"},{"internalType":"bool","name":"refunded","type":"bool"},{"internalType":"uint256","name":"createdAt","type":"uint256"},{"internalType":"uint256","name":"finalizedAt","type":"uint256"}],"internalType":"struct BountyEscrow.Escrow","name":"","type":"tuple"}],"stateMutability":"view","type":"function"},{"inputs":[],"name":"owner","outputs":[{"internalType":"address","name":"","type":"address"}],"stateMutability":"view","type":"function"},{"inputs":[{"internalType":"uint256","name":"bountyId","type":"uint256"}],"name":"refund","outputs":[],"stateMutability":"nonpayable","type":"function"},{"inputs":[{"internalType":"uint256","name":"bountyId","type":"uint256"}],"name":"release","outputs":[],"stateMutability":"nonpayable","type":"function"},{"inputs":[],"name":"renounceOwnership","outputs":[],"stateMutability":"nonpayable","type":"function"},{"inputs":[{"internalType":"address","name":"newOwner","type":"address"}],"name":"transferOwnership","outputs":[],"stateMutability":"nonpayable","type":"function"}],"evm":{"bytecode":{"linkReferences":{},"object":"608060405234801561001057600080fd5b50604051610f14380380610f1483398101604081905261002f916100c2565b806001600160a01b03811661005e57604051631e4fbdf760e01b81526000600482015260240160405180910390fd5b61006781610072565b5050600180556100f2565b600080546001600160a01b038381166001600160a01b0319831681178455604051919092169283917f8be0079c531659141344cd1fd0a4f28419497f9722a3daafe3b4186f6b6457e09190a35050565b6000602082840312156100d457600080fd5b81516001600160a01b03811681146100eb57600080fd5b9392505050565b610e13806101016000396000f3fe60806040526004361061007b5760003560e01c80637d19e5961161004e5780637d19e596146100f75780638da5cb5b1461012d578063dbcd72f014610155578063f2fde38b1461016857600080fd5b8063278ecde11461008057806337bdc99b146100a257806337ea1295146100c2578063715018a6146100e2575b600080fd5b34801561008c57600080fd5b506100a061009b3660046109bd565b610188565b005b3480156100ae57600080fd5b506100a06100bd3660046109bd565b610342565b3480156100ce57600080fd5b506100a06100dd3660046109d6565b6104eb565b3480156100ee57600080fd5b506100a06105b6565b34801561010357600080fd5b506101176101123660046109bd565b6105ca565b6040516101249190610a98565b60405180910390f35b34801561013957600080fd5b506000546040516001600160a01b039091168152602001610124565b6100a0610163366004610b38565b610747565b34801561017457600080fd5b506100a0610183366004610b68565b6108db565b610190610916565b610198610943565b600081815260026020526040812060058101549091036101d3576040516305b3479760e11b8152600481018390526024015b60405180910390fd5b600481015460ff16806101ef57506004810154610100900460ff165b156102105760405163f075432960e01b8152600481018390526024016101ca565b806002015460000361023857604051631af3fffb60e31b8152600481018390526024016101ca565b60028101805460009182905560048301805461ff00191661010017905542600684015582546040519192916001600160a01b039091169083908381818185875af1925050503d80600081146102a9576040519150601f19603f3d011682016040523d82523d6000602084013e6102ae565b606091505b50509050806102ef5760405162461bcd60e51b815260206004820152600d60248201526c1499599d5b990819985a5b1959609a1b60448201526064016101ca565b82546040518381526001600160a01b039091169085907feac97bc1917fcedc984e3d0671d4e83b359890323d5d1c2de32b28d17c356ced906020015b60405180910390a350505061033f60018055565b50565b61034a610916565b610352610943565b60008181526002602052604081206005810154909103610388576040516305b3479760e11b8152600481018390526024016101ca565b600481015460ff16806103a457506004810154610100900460ff165b156103c55760405163f075432960e01b8152600481018390526024016101ca565b80600201546000036103ed57604051631af3fffb60e31b8152600481018390526024016101ca565b60028101805460009182905560048301805460ff191660019081179091554260068501558301546040519192916001600160a01b039091169083908381818185875af1925050503d8060008114610460576040519150601f19603f3d011682016040523d82523d6000602084013e610465565b606091505b50509050806104a85760405162461bcd60e51b815260206004820152600f60248201526e151c985b9cd9995c8819985a5b1959608a1b60448201526064016101ca565b60018301546040518381526001600160a01b039091169085907f6244ed823ca6be0f11bc890c3fafcf3c29cb23420c14243642e930b5e07e6d0a9060200161032b565b6104f3610916565b60008381526002602052604081206005810154909103610529576040516305b3479760e11b8152600481018590526024016101ca565b600481015460ff168061054557506004810154610100900460ff165b156105665760405163f075432960e01b8152600481018590526024016101ca565b60038101610575838583610c2d565b50837f3001cfeada10ed0e0ebc2f81596cc0bdec72095a33c239e0130f9d6c9398a7ee84846040516105a8929190610cee565b60405180910390a250505050565b6105be610916565b6105c8600061096d565b565b60408051610100810182526000808252602082018190529181018290526060808201526080810182905260a0810182905260c0810182905260e0810191909152600082815260026020818152604080842081516101008101835281546001600160a01b03908116825260018301541693810193909352928301549082015260038201805491929160608401919061066090610ba2565b80601f016020809104026020016040519081016040528092919081815260200182805461068c90610ba2565b80156106d95780601f106106ae576101008083540402835291602001916106d9565b820191906000526020600020905b8154815290600101906020018083116106bc57829003601f168201915b5050509183525050600482015460ff8082161515602084015261010090910416151560408201526005820154606082015260069091015460809091015260c0810151909150600003610741576040516305b3479760e11b8152600481018490526024016101ca565b92915050565b6000828152600260205260409020600501541561077a5760405163cb7a06f760e01b8152600481018390526024016101ca565b3460000361079e57604051631af3fffb60e31b8152600481018390526024016101ca565b60408051610100810182523381526001600160a01b03838116602080840191825234848601908152855180830187526000808252606087019182526080870181905260a087018190524260c088015260e0870181905289815260029384905296909620855181546001600160a01b03199081169187169190911782559351600182018054909516951694909417909255905190820155915190919060038201906108489082610d1d565b50608082015160048201805460a085015115156101000261ff00199315159390931661ffff199091161791909117905560c0820151600582015560e0909101516006909101556040516001600160a01b03821690339084907f9405ad0a6208539879349284d71265479b1623846f70303da1f9890d6e8c10a7906108cf9034815260200190565b60405180910390a45050565b6108e3610916565b6001600160a01b03811661090d57604051631e4fbdf760e01b8152600060048201526024016101ca565b61033f8161096d565b6000546001600160a01b031633146105c85760405163118cdaa760e01b81523360048201526024016101ca565b60026001540361096657604051633ee5aeb560e01b815260040160405180910390fd5b6002600155565b600080546001600160a01b038381166001600160a01b0319831681178455604051919092169283917f8be0079c531659141344cd1fd0a4f28419497f9722a3daafe3b4186f6b6457e09190a35050565b6000602082840312156109cf57600080fd5b5035919050565b6000806000604084860312156109eb57600080fd5b83359250602084013567ffffffffffffffff80821115610a0a57600080fd5b818601915086601f830112610a1e57600080fd5b813581811115610a2d57600080fd5b876020828501011115610a3f57600080fd5b6020830194508093505050509250925092565b6000815180845260005b81811015610a7857602081850181015186830182015201610a5c565b506000602082860101526020601f19601f83011685010191505092915050565b60208152600060018060a01b0380845116602084015280602085015116604084015250604083015160608301526060830151610100806080850152610ae1610120850183610a52565b91506080850151610af660a086018215159052565b5060a085015180151560c08601525060c085015160e085015260e085015181850152508091505092915050565b6001600160a01b038116811461033f57600080fd5b60008060408385031215610b4b57600080fd5b823591506020830135610b5d81610b23565b809150509250929050565b600060208284031215610b7a57600080fd5b8135610b8581610b23565b9392505050565b634e487b7160e01b600052604160045260246000fd5b600181811c90821680610bb657607f821691505b602082108103610bd657634e487b7160e01b600052602260045260246000fd5b50919050565b601f821115610c28576000816000526020600020601f850160051c81016020861015610c055750805b601f850160051c820191505b81811015610c2457828155600101610c11565b5050505b505050565b67ffffffffffffffff831115610c4557610c45610b8c565b610c5983610c538354610ba2565b83610bdc565b6000601f841160018114610c8d5760008515610c755750838201355b600019600387901b1c1916600186901b178355610ce7565b600083815260209020601f19861690835b82811015610cbe5786850135825560209485019460019092019101610c9e565b5086821015610cdb5760001960f88860031b161c19848701351681555b505060018560011b0183555b5050505050565b60208152816020820152818360408301376000818301604090810191909152601f909201601f19160101919050565b815167ffffffffffffffff811115610d3757610d37610b8c565b610d4b81610d458454610ba2565b84610bdc565b602080601f831160018114610d805760008415610d685750858301515b600019600386901b1c1916600185901b178555610c24565b600085815260208120601f198616915b82811015610daf57888601518255948401946001909101908401610d90565b5085821015610dcd5787850151600019600388901b60f8161c191681555b5050505050600190811b0190555056fea2646970667358221220ba91833eb5733d6a1fec4cc7514b3febb0af1a127405c216570950c577094cde64736f6c63430008190033","opcodes":"PUSH1 0x80 PUSH1 0x40 MSTORE CALLVALUE DUP1 ISZERO PUSH2 0x10 JUMPI PUSH1 0x0 DUP1 REVERT JUMPDEST POP PUSH1 0x40 MLOAD PUSH2 0xF14 CODESIZE SUB DUP1 PUSH2 0xF14 DUP4 CODECOPY DUP2 ADD PUSH1 0x40 DUP2 SWAP1 MSTORE PUSH2 0x2F SWAP2 PUSH2 0xC2 JUMP JUMPDEST DUP1 PUSH1 0x1 PUSH1 0x1 PUSH1 0xA0 SHL SUB DUP2 AND PUSH2 0x5E JUMPI PUSH1 0x40 MLOAD PUSH4 0x1E4FBDF7 PUSH1 0xE0 SHL DUP2 MSTORE PUSH1 0x0 PUSH1 0x4 DUP3 ADD MSTORE PUSH1 0x24 ADD PUSH1 0x40 MLOAD DUP1 SWAP2 SUB SWAP1 REVERT JUMPDEST PUSH2 0x67 DUP2 PUSH2 0x72 JUMP JUMPDEST POP POP PUSH1 0x1 DUP1 SSTORE PUSH2 0xF2 JUMP JUMPDEST PUSH1 0x0 DUP1 SLOAD PUSH1 0x1 PUSH1 0x1 PUSH1 0xA0 SHL SUB DUP4 DUP2 AND PUSH1 0x1 PUSH1 0x1 PUSH1 0xA0 SHL SUB NOT DUP4 AND DUP2 OR DUP5 SSTORE PUSH1 0x40 MLOAD SWAP2 SWAP1 SWAP3 AND SWAP3 DUP4 SWAP2 PUSH32 0x8BE0079C531659141344CD1FD0A4F28419497F9722A3DAAFE3B4186F6B6457E0 SWAP2 SWAP1 LOG3 POP POP JUMP JUMPDEST PUSH1 0x0 PUSH1 0x20 DUP3 DUP5 SUB SLT ISZERO PUSH2 0xD4 JUMPI PUSH1 0x0 DUP1 REVERT JUMPDEST DUP2 MLOAD PUSH1 0x1 PUSH1 0x1 PUSH1 0xA0 SHL SUB DUP2 AND DUP2 EQ PUSH2 0xEB JUMPI PUSH1 0x0 DUP1 REVERT JUMPDEST SWAP4 SWAP3 POP POP POP JUMP JUMPDEST PUSH2 0xE13 DUP1 PUSH2 0x101 PUSH1 0x0 CODECOPY PUSH1 0x0 RETURN INVALID PUSH1 0x80 PUSH1 0x40 MSTORE PUSH1 0x4 CALLDATASIZE LT PUSH2 0x7B JUMPI PUSH1 0x0 CALLDATALOAD PUSH1 0xE0 SHR DUP1 PUSH4 0x7D19E596 GT PUSH2 0x4E JUMPI DUP1 PUSH4 0x7D19E596 EQ PUSH2 0xF7 JUMPI DUP1 PUSH4 0x8DA5CB5B EQ PUSH2 0x12D JUMPI DUP1 PUSH4 0xDBCD72F0 EQ PUSH2 0x155 JUMPI DUP1 PUSH4 0xF2FDE38B EQ PUSH2 0x168 JUMPI PUSH1 0x0 DUP1 REVERT JUMPDEST DUP1 PUSH4 0x278ECDE1 EQ PUSH2 0x80 JUMPI DUP1 PUSH4 0x37BDC99B EQ PUSH2 0xA2 JUMPI DUP1 PUSH4 0x37EA1295 EQ PUSH2 0xC2 JUMPI DUP1 PUSH4 0x715018A6 EQ PUSH2 0xE2 JUMPI JUMPDEST PUSH1 0x0 DUP1 REVERT JUMPDEST CALLVALUE DUP1 ISZERO PUSH2 0x8C JUMPI PUSH1 0x0 DUP1 REVERT JUMPDEST POP PUSH2 0xA0 PUSH2 0x9B CALLDATASIZE PUSH1 0x4 PUSH2 0x9BD JUMP JUMPDEST PUSH2 0x188 JUMP JUMPDEST STOP JUMPDEST CALLVALUE DUP1 ISZERO PUSH2 0xAE JUMPI PUSH1 0x0 DUP1 REVERT JUMPDEST POP PUSH2 0xA0 PUSH2 0xBD CALLDATASIZE PUSH1 0x4 PUSH2 0x9BD JUMP JUMPDEST PUSH2 0x342 JUMP JUMPDEST CALLVALUE DUP1 ISZERO PUSH2 0xCE JUMPI PUSH1 0x0 DUP1 REVERT JUMPDEST POP PUSH2 0xA0 PUSH2 0xDD CALLDATASIZE PUSH1 0x4 PUSH2 0x9D6 JUMP JUMPDEST PUSH2 0x4EB JUMP JUMPDEST CALLVALUE DUP1 ISZERO PUSH2 0xEE JUMPI PUSH1 0x0 DUP1 REVERT JUMPDEST POP PUSH2 0xA0 PUSH2 0x5B6 JUMP JUMPDEST CALLVALUE DUP1 ISZERO PUSH2 0x103 JUMPI PUSH1 0x0 DUP1 REVERT JUMPDEST POP PUSH2 0x117 PUSH2 0x112 CALLDATASIZE PUSH1 0x4 PUSH2 0x9BD JUMP JUMPDEST PUSH2 0x5CA JUMP JUMPDEST PUSH1 0x40 MLOAD PUSH2 0x124 SWAP2 SWAP1 PUSH2 0xA98 JUMP JUMPDEST PUSH1 0x40 MLOAD DUP1 SWAP2 SUB SWAP1 RETURN JUMPDEST CALLVALUE DUP1 ISZERO PUSH2 0x139 JUMPI PUSH1 0x0 DUP1 REVERT JUMPDEST POP PUSH1 0x0 SLOAD PUSH1 0x40 MLOAD PUSH1 0x1 PUSH1 0x1 PUSH1 0xA0 SHL SUB SWAP1 SWAP2 AND DUP2 MSTORE PUSH1 0x20 ADD PUSH2 0x124 JUMP JUMPDEST PUSH2 0xA0 PUSH2 0x163 CALLDATASIZE PUSH1 0x4 PUSH2 0xB38 JUMP JUMPDEST PUSH2 0x747 JUMP JUMPDEST CALLVALUE DUP1 ISZERO PUSH2 0x174 JUMPI PUSH1 0x0 DUP1 REVERT JUMPDEST POP PUSH2 0xA0 PUSH2 0x183 CALLDATASIZE PUSH1 0x4 PUSH2 0xB68 JUMP JUMPDEST PUSH2 0x8DB JUMP JUMPDEST PUSH2 0x190 PUSH2 0x916 JUMP JUMPDEST PUSH2 0x198 PUSH2 0x943 JUMP JUMPDEST PUSH1 0x0 DUP2 DUP2 MSTORE PUSH1 0x2 PUSH1 0x20 MSTORE PUSH1 0x40 DUP2 KECCAK256 PUSH1 0x5 DUP2 ADD SLOAD SWAP1 SWAP2 SUB PUSH2 0x1D3 JUMPI PUSH1 0x40 MLOAD PUSH4 0x5B34797 PUSH1 0xE1 SHL DUP2 MSTORE PUSH1 0x4 DUP2 ADD DUP4 SWAP1 MSTORE PUSH1 0x24 ADD JUMPDEST PUSH1 0x40 MLOAD DUP1 SWAP2 SUB SWAP1 REVERT JUMPDEST PUSH1 0x4 DUP2 ADD SLOAD PUSH1 0xFF AND DUP1 PUSH2 0x1EF JUMPI POP PUSH1 0x4 DUP2 ADD SLOAD PUSH2 0x100 SWAP1 DIV PUSH1 0xFF AND JUMPDEST ISZERO PUSH2 0x210 JUMPI PUSH1 0x40 MLOAD PUSH4 0xF0754329 PUSH1 0xE0 SHL DUP2 MSTORE PUSH1 0x4 DUP2 ADD DUP4 SWAP1 MSTORE PUSH1 0x24 ADD PUSH2 0x1CA JUMP JUMPDEST DUP1 PUSH1 0x2 ADD SLOAD PUSH1 0x0 SUB PUSH2 0x238 JUMPI PUSH1 0x40 MLOAD PUSH4 0x1AF3FFFB PUSH1 0xE3 SHL DUP2 MSTORE PUSH1 0x4 DUP2 ADD DUP4 SWAP1 MSTORE PUSH1 0x24 ADD PUSH2 0x1CA JUMP JUMPDEST PUSH1 0x2 DUP2 ADD DUP1 SLOAD PUSH1 0x0 SWAP2 DUP3 SWAP1 SSTORE PUSH1 0x4 DUP4 ADD DUP1 SLOAD PUSH2 0xFF00 NOT AND PUSH2 0x100 OR SWAP1 SSTORE TIMESTAMP PUSH1 0x6 DUP5 ADD SSTORE DUP3 SLOAD PUSH1 0x40 MLOAD SWAP2 SWAP3 SWAP2 PUSH1 0x1 PUSH1 0x1 PUSH1 0xA0 SHL SUB SWAP1 SWAP2 AND SWAP1 DUP4 SWAP1 DUP4 DUP2 DUP2 DUP2 DUP6 DUP8 GAS CALL SWAP3 POP POP POP RETURNDATASIZE DUP1 PUSH1 0x0 DUP2 EQ PUSH2 0x2A9 JUMPI PUSH1 0x40 MLOAD SWAP2 POP PUSH1 0x1F NOT PUSH1 0x3F RETURNDATASIZE ADD AND DUP3 ADD PUSH1 0x40 MSTORE RETURNDATASIZE DUP3 MSTORE RETURNDATASIZE PUSH1 0x0 PUSH1 0x20 DUP5 ADD RETURNDATACOPY PUSH2 0x2AE JUMP JUMPDEST PUSH1 0x60 SWAP2 POP JUMPDEST POP POP SWAP1 POP DUP1 PUSH2 0x2EF JUMPI PUSH1 0x40 MLOAD PUSH3 0x461BCD PUSH1 0xE5 SHL DUP2 MSTORE PUSH1 0x20 PUSH1 0x4 DUP3 ADD MSTORE PUSH1 0xD PUSH1 0x24 DUP3 ADD MSTORE PUSH13 0x1499599D5B990819985A5B1959 PUSH1 0x9A SHL PUSH1 0x44 DUP3 ADD MSTORE PUSH1 0x64 ADD PUSH2 0x1CA JUMP JUMPDEST DUP3 SLOAD PUSH1 0x40 MLOAD DUP4 DUP2 MSTORE PUSH1 0x1 PUSH1 0x1 PUSH1 0xA0 SHL SUB SWAP1 SWAP2 AND SWAP1 DUP6 SWAP1 PUSH32 0xEAC97BC1917FCEDC984E3D0671D4E83B359890323D5D1C2DE32B28D17C356CED SWAP1 PUSH1 0x20 ADD JUMPDEST PUSH1 0x40 MLOAD DUP1 SWAP2 SUB SWAP1 LOG3 POP POP POP PUSH2 0x33F PUSH1 0x1 DUP1 SSTORE JUMP JUMPDEST POP JUMP JUMPDEST PUSH2 0x34A PUSH2 0x916 JUMP JUMPDEST PUSH2 0x352 PUSH2 0x943 JUMP JUMPDEST PUSH1 0x0 DUP2 DUP2 MSTORE PUSH1 0x2 PUSH1 0x20 MSTORE PUSH1 0x40 DUP2 KECCAK256 PUSH1 0x5 DUP2 ADD SLOAD SWAP1 SWAP2 SUB PUSH2 0x388 JUMPI PUSH1 0x40 MLOAD PUSH4 0x5B34797 PUSH1 0xE1 SHL DUP2 MSTORE PUSH1 0x4 DUP2 ADD DUP4 SWAP1 MSTORE PUSH1 0x24 ADD PUSH2 0x1CA JUMP JUMPDEST PUSH1 0x4 DUP2 ADD SLOAD PUSH1 0xFF AND DUP1 PUSH2 0x3A4 JUMPI POP PUSH1 0x4 DUP2 ADD SLOAD PUSH2 0x100 SWAP1 DIV PUSH1 0xFF AND JUMPDEST ISZERO PUSH2 0x3C5 JUMPI PUSH1 0x40 MLOAD PUSH4 0xF0754329 PUSH1 0xE0 SHL DUP2 MSTORE PUSH1 0x4 DUP2 ADD DUP4 SWAP1 MSTORE PUSH1 0x24 ADD PUSH2 0x1CA JUMP JUMPDEST DUP1 PUSH1 0x2 ADD SLOAD PUSH1 0x0 SUB PUSH2 0x3ED JUMPI PUSH1 0x40 MLOAD PUSH4 0x1AF3FFFB PUSH1 0xE3 SHL DUP2 MSTORE PUSH1 0x4 DUP2 ADD DUP4 SWAP1 MSTORE PUSH1 0x24 ADD PUSH2 0x1CA JUMP JUMPDEST PUSH1 0x2 DUP2 ADD DUP1 SLOAD PUSH1 0x0 SWAP2 DUP3 SWAP1 SSTORE PUSH1 0x4 DUP4 ADD DUP1 SLOAD PUSH1 0xFF NOT AND PUSH1 0x1 SWAP1 DUP2 OR SWAP1 SWAP2 SSTORE TIMESTAMP PUSH1 0x6 DUP6 ADD SSTORE DUP4 ADD SLOAD PUSH1 0x40 MLOAD SWAP2 SWAP3 SWAP2 PUSH1 0x1 PUSH1 0x1 PUSH1 0xA0 SHL SUB SWAP1 SWAP2 AND SWAP1 DUP4 SWAP1 DUP4 DUP2 DUP2 DUP2 DUP6 DUP8 GAS CALL SWAP3 POP POP POP RETURNDATASIZE DUP1 PUSH1 0x0 DUP2 EQ PUSH2 0x460 JUMPI PUSH1 0x40 MLOAD SWAP2 POP PUSH1 0x1F NOT PUSH1 0x3F RETURNDATASIZE ADD AND DUP3 ADD PUSH1 0x40 MSTORE RETURNDATASIZE DUP3 MSTORE RETURNDATASIZE PUSH1 0x0 PUSH1 0x20 DUP5 ADD RETURNDATACOPY PUSH2 0x465 JUMP JUMPDEST PUSH1 0x60 SWAP2 POP JUMPDEST POP POP SWAP1 POP DUP1 PUSH2 0x4A8 JUMPI PUSH1 0x40 MLOAD PUSH3 0x461BCD PUSH1 0xE5 SHL DUP2 MSTORE PUSH1 0x20 PUSH1 0x4 DUP3 ADD MSTORE PUSH1 0xF PUSH1 0x24 DUP3 ADD MSTORE PUSH15 0x151C985B9CD9995C8819985A5B1959 PUSH1 0x8A SHL PUSH1 0x44 DUP3 ADD MSTORE PUSH1 0x64 ADD PUSH2 0x1CA JUMP JUMPDEST PUSH1 0x1 DUP4 ADD SLOAD PUSH1 0x40 MLOAD DUP4 DUP2 MSTORE PUSH1 0x1 PUSH1 0x1 PUSH1 0xA0 SHL SUB SWAP1 SWAP2 AND SWAP1 DUP6 SWAP1 PUSH32 0x6244ED823CA6BE0F11BC890C3FAFCF3C29CB23420C14243642E930B5E07E6D0A SWAP1 PUSH1 0x20 ADD PUSH2 0x32B JUMP JUMPDEST PUSH2 0x4F3 PUSH2 0x916 JUMP JUMPDEST PUSH1 0x0 DUP4 DUP2 MSTORE PUSH1 0x2 PUSH1 0x20 MSTORE PUSH1 0x40 DUP2 KECCAK256 PUSH1 0x5 DUP2 ADD SLOAD SWAP1 SWAP2 SUB PUSH2 0x529 JUMPI PUSH1 0x40 MLOAD PUSH4 0x5B34797 PUSH1 0xE1 SHL DUP2 MSTORE PUSH1 0x4 DUP2 ADD DUP6 SWAP1 MSTORE PUSH1 0x24 ADD PUSH2 0x1CA JUMP JUMPDEST PUSH1 0x4 DUP2 ADD SLOAD PUSH1 0xFF AND DUP1 PUSH2 0x545 JUMPI POP PUSH1 0x4 DUP2 ADD SLOAD PUSH2 0x100 SWAP1 DIV PUSH1 0xFF AND JUMPDEST ISZERO PUSH2 0x566 JUMPI PUSH1 0x40 MLOAD PUSH4 0xF0754329 PUSH1 0xE0 SHL DUP2 MSTORE PUSH1 0x4 DUP2 ADD DUP6 SWAP1 MSTORE PUSH1 0x24 ADD PUSH2 0x1CA JUMP JUMPDEST PUSH1 0x3 DUP2 ADD PUSH2 0x575 DUP4 DUP6 DUP4 PUSH2 0xC2D JUMP JUMPDEST POP DUP4 PUSH32 0x3001CFEADA10ED0E0EBC2F81596CC0BDEC72095A33C239E0130F9D6C9398A7EE DUP5 DUP5 PUSH1 0x40 MLOAD PUSH2 0x5A8 SWAP3 SWAP2 SWAP1 PUSH2 0xCEE JUMP JUMPDEST PUSH1 0x40 MLOAD DUP1 SWAP2 SUB SWAP1 LOG2 POP POP POP POP JUMP JUMPDEST PUSH2 0x5BE PUSH2 0x916 JUMP JUMPDEST PUSH2 0x5C8 PUSH1 0x0 PUSH2 0x96D JUMP JUMPDEST JUMP JUMPDEST PUSH1 0x40 DUP1 MLOAD PUSH2 0x100 DUP2 ADD DUP3 MSTORE PUSH1 0x0 DUP1 DUP3 MSTORE PUSH1 0x20 DUP3 ADD DUP2 SWAP1 MSTORE SWAP2 DUP2 ADD DUP3 SWAP1 MSTORE PUSH1 0x60 DUP1 DUP3 ADD MSTORE PUSH1 0x80 DUP2 ADD DUP3 SWAP1 MSTORE PUSH1 0xA0 DUP2 ADD DUP3 SWAP1 MSTORE PUSH1 0xC0 DUP2 ADD DUP3 SWAP1 MSTORE PUSH1 0xE0 DUP2 ADD SWAP2 SWAP1 SWAP2 MSTORE PUSH1 0x0 DUP3 DUP2 MSTORE PUSH1 0x2 PUSH1 0x20 DUP2 DUP2 MSTORE PUSH1 0x40 DUP1 DUP5 KECCAK256 DUP2 MLOAD PUSH2 0x100 DUP2 ADD DUP4 MSTORE DUP2 SLOAD PUSH1 0x1 PUSH1 0x1 PUSH1 0xA0 SHL SUB SWAP1 DUP2 AND DUP3 MSTORE PUSH1 0x1 DUP4 ADD SLOAD AND SWAP4 DUP2 ADD SWAP4 SWAP1 SWAP4 MSTORE SWAP3 DUP4 ADD SLOAD SWAP1 DUP3 ADD MSTORE PUSH1 0x3 DUP3 ADD DUP1 SLOAD SWAP2 SWAP3 SWAP2 PUSH1 0x60 DUP5 ADD SWAP2 SWAP1 PUSH2 0x660 SWAP1 PUSH2 0xBA2 JUMP JUMPDEST DUP1 PUSH1 0x1F ADD PUSH1 0x20 DUP1 SWAP2 DIV MUL PUSH1 0x20 ADD PUSH1 0x40 MLOAD SWAP1 DUP2 ADD PUSH1 0x40 MSTORE DUP1 SWAP3 SWAP2 SWAP1 DUP2 DUP2 MSTORE PUSH1 0x20 ADD DUP3 DUP1 SLOAD PUSH2 0x68C SWAP1 PUSH2 0xBA2 JUMP JUMPDEST DUP1 ISZERO PUSH2 0x6D9 JUMPI DUP1 PUSH1 0x1F LT PUSH2 0x6AE JUMPI PUSH2 0x100 DUP1 DUP4 SLOAD DIV MUL DUP4 MSTORE SWAP2 PUSH1 0x20 ADD SWAP2 PUSH2 0x6D9 JUMP JUMPDEST DUP3 ADD SWAP2 SWAP1 PUSH1 0x0 MSTORE PUSH1 0x20 PUSH1 0x0 KECCAK256 SWAP1 JUMPDEST DUP2 SLOAD DUP2 MSTORE SWAP1 PUSH1 0x1 ADD SWAP1 PUSH1 0x20 ADD DUP1 DUP4 GT PUSH2 0x6BC JUMPI DUP3 SWAP1 SUB PUSH1 0x1F AND DUP3 ADD SWAP2 JUMPDEST POP POP POP SWAP2 DUP4 MSTORE POP POP PUSH1 0x4 DUP3 ADD SLOAD PUSH1 0xFF DUP1 DUP3 AND ISZERO ISZERO PUSH1 0x20 DUP5 ADD MSTORE PUSH2 0x100 SWAP1 SWAP2 DIV AND ISZERO ISZERO PUSH1 0x40 DUP3 ADD MSTORE PUSH1 0x5 DUP3 ADD SLOAD PUSH1 0x60 DUP3 ADD MSTORE PUSH1 0x6 SWAP1 SWAP2 ADD SLOAD PUSH1 0x80 SWAP1 SWAP2 ADD MSTORE PUSH1 0xC0 DUP2 ADD MLOAD SWAP1 SWAP2 POP PUSH1 0x0 SUB PUSH2 0x741 JUMPI PUSH1 0x40 MLOAD PUSH4 0x5B34797 PUSH1 0xE1 SHL DUP2 MSTORE PUSH1 0x4 DUP2 ADD DUP5 SWAP1 MSTORE PUSH1 0x24 ADD PUSH2 0x1CA JUMP JUMPDEST SWAP3 SWAP2 POP POP JUMP JUMPDEST PUSH1 0x0 DUP3 DUP2 MSTORE PUSH1 0x2 PUSH1 0x20 MSTORE PUSH1 0x40 SWAP1 KECCAK256 PUSH1 0x5 ADD SLOAD ISZERO PUSH2 0x77A JUMPI PUSH1 0x40 MLOAD PUSH4 0xCB7A06F7 PUSH1 0xE0 SHL DUP2 MSTORE PUSH1 0x4 DUP2 ADD DUP4 SWAP1 MSTORE PUSH1 0x24 ADD PUSH2 0x1CA JUMP JUMPDEST CALLVALUE PUSH1 0x0 SUB PUSH2 0x79E JUMPI PUSH1 0x40 MLOAD PUSH4 0x1AF3FFFB PUSH1 0xE3 SHL DUP2 MSTORE PUSH1 0x4 DUP2 ADD DUP4 SWAP1 MSTORE PUSH1 0x24 ADD PUSH2 0x1CA JUMP JUMPDEST PUSH1 0x40 DUP1 MLOAD PUSH2 0x100 DUP2 ADD DUP3 MSTORE CALLER DUP2 MSTORE PUSH1 0x1 PUSH1 0x1 PUSH1 0xA0 SHL SUB DUP4 DUP2 AND PUSH1 0x20 DUP1 DUP5 ADD SWAP2 DUP3 MSTORE CALLVALUE DUP5 DUP7 ADD SWAP1 DUP2 MSTORE DUP6 MLOAD DUP1 DUP4 ADD DUP8 MSTORE PUSH1 0x0 DUP1 DUP3 MSTORE PUSH1 0x60 DUP8 ADD SWAP2 DUP3 MSTORE PUSH1 0x80 DUP8 ADD DUP2 SWAP1 MSTORE PUSH1 0xA0 DUP8 ADD DUP2 SWAP1 MSTORE TIMESTAMP PUSH1 0xC0 DUP9 ADD MSTORE PUSH1 0xE0 DUP8 ADD DUP2 SWAP1 MSTORE DUP10 DUP2 MSTORE PUSH1 0x2 SWAP4 DUP5 SWAP1 MSTORE SWAP7 SWAP1 SWAP7 KECCAK256 DUP6 MLOAD DUP2 SLOAD PUSH1 0x1 PUSH1 0x1 PUSH1 0xA0 SHL SUB NOT SWAP1 DUP2 AND SWAP2 DUP8 AND SWAP2 SWAP1 SWAP2 OR DUP3 SSTORE SWAP4 MLOAD PUSH1 0x1 DUP3 ADD DUP1 SLOAD SWAP1 SWAP6 AND SWAP6 AND SWAP5 SWAP1 SWAP5 OR SWAP1 SWAP3 SSTORE SWAP1 MLOAD SWAP1 DUP3 ADD SSTORE SWAP2 MLOAD SWAP1 SWAP2 SWAP1 PUSH1 0x3 DUP3 ADD SWAP1 PUSH2 0x848 SWAP1 DUP3 PUSH2 0xD1D JUMP JUMPDEST POP PUSH1 0x80 DUP3 ADD MLOAD PUSH1 0x4 DUP3 ADD DUP1 SLOAD PUSH1 0xA0 DUP6 ADD MLOAD ISZERO ISZERO PUSH2 0x100 MUL PUSH2 0xFF00 NOT SWAP4 ISZERO ISZERO SWAP4 SWAP1 SWAP4 AND PUSH2 0xFFFF NOT SWAP1 SWAP2 AND OR SWAP2 SWAP1 SWAP2 OR SWAP1 SSTORE PUSH1 0xC0 DUP3 ADD MLOAD PUSH1 0x5 DUP3 ADD SSTORE PUSH1 0xE0 SWAP1 SWAP2 ADD MLOAD PUSH1 0x6 SWAP1 SWAP2 ADD SSTORE PUSH1 0x40 MLOAD PUSH1 0x1 PUSH1 0x1 PUSH1 0xA0 SHL SUB DUP3 AND SWAP1 CALLER SWAP1 DUP5 SWAP1 PUSH32 0x9405AD0A6208539879349284D71265479B1623846F70303DA1F9890D6E8C10A7 SWAP1 PUSH2 0x8CF SWAP1 CALLVALUE DUP2 MSTORE PUSH1 0x20 ADD SWAP1 JUMP JUMPDEST PUSH1 0x40 MLOAD DUP1 SWAP2 SUB SWAP1 LOG4 POP POP JUMP JUMPDEST PUSH2 0x8E3 PUSH2 0x916 JUMP JUMPDEST PUSH1 0x1 PUSH1 0x1 PUSH1 0xA0 SHL SUB DUP2 AND PUSH2 0x90D JUMPI PUSH1 0x40 MLOAD PUSH4 0x1E4FBDF7 PUSH1 0xE0 SHL DUP2 MSTORE PUSH1 0x0 PUSH1 0x4 DUP3 ADD MSTORE PUSH1 0x24 ADD PUSH2 0x1CA JUMP JUMPDEST PUSH2 0x33F DUP2 PUSH2 0x96D JUMP JUMPDEST PUSH1 0x0 SLOAD PUSH1 0x1 PUSH1 0x1 PUSH1 0xA0 SHL SUB AND CALLER EQ PUSH2 0x5C8 JUMPI PUSH1 0x40 MLOAD PUSH4 0x118CDAA7 PUSH1 0xE0 SHL DUP2 MSTORE CALLER PUSH1 0x4 DUP3 ADD MSTORE PUSH1 0x24 ADD PUSH2 0x1CA JUMP JUMPDEST PUSH1 0x2 PUSH1 0x1 SLOAD SUB PUSH2 0x966 JUMPI PUSH1 0x40 MLOAD PUSH4 0x3EE5AEB5 PUSH1 0xE0 SHL DUP2 MSTORE PUSH1 0x4 ADD PUSH1 0x40 MLOAD DUP1 SWAP2 SUB SWAP1 REVERT JUMPDEST PUSH1 0x2 PUSH1 0x1 SSTORE JUMP JUMPDEST PUSH1 0x0 DUP1 SLOAD PUSH1 0x1 PUSH1 0x1 PUSH1 0xA0 SHL SUB DUP4 DUP2 AND PUSH1 0x1 PUSH1 0x1 PUSH1 0xA0 SHL SUB NOT DUP4 AND DUP2 OR DUP5 SSTORE PUSH1 0x40 MLOAD SWAP2 SWAP1 SWAP3 AND SWAP3 DUP4 SWAP2 PUSH32 0x8BE0079C531659141344CD1FD0A4F28419497F9722A3DAAFE3B4186F6B6457E0 SWAP2 SWAP1 LOG3 POP POP JUMP JUMPDEST PUSH1 0x0 PUSH1 0x20 DUP3 DUP5 SUB SLT ISZERO PUSH2 0x9CF JUMPI PUSH1 0x0 DUP1 REVERT JUMPDEST POP CALLDATALOAD SWAP2 SWAP1 POP JUMP JUMPDEST PUSH1 0x0 DUP1 PUSH1 0x0 PUSH1 0x40 DUP5 DUP7 SUB SLT ISZERO PUSH2 0x9EB JUMPI PUSH1 0x0 DUP1 REVERT JUMPDEST DUP4 CALLDATALOAD SWAP3 POP PUSH1 0x20 DUP5 ADD CALLDATALOAD PUSH8 0xFFFFFFFFFFFFFFFF DUP1 DUP3 GT ISZERO PUSH2 0xA0A JUMPI PUSH1 0x0 DUP1 REVERT JUMPDEST DUP2 DUP7 ADD SWAP2 POP DUP7 PUSH1 0x1F DUP4 ADD SLT PUSH2 0xA1E JUMPI PUSH1 0x0 DUP1 REVERT JUMPDEST DUP2 CALLDATALOAD DUP2 DUP2 GT ISZERO PUSH2 0xA2D JUMPI PUSH1 0x0 DUP1 REVERT JUMPDEST DUP8 PUSH1 0x20 DUP3 DUP6 ADD ADD GT ISZERO PUSH2 0xA3F JUMPI PUSH1 0x0 DUP1 REVERT JUMPDEST PUSH1 0x20 DUP4 ADD SWAP5 POP DUP1 SWAP4 POP POP POP POP SWAP3 POP SWAP3 POP SWAP3 JUMP JUMPDEST PUSH1 0x0 DUP2 MLOAD DUP1 DUP5 MSTORE PUSH1 0x0 JUMPDEST DUP2 DUP2 LT ISZERO PUSH2 0xA78 JUMPI PUSH1 0x20 DUP2 DUP6 ADD DUP2 ADD MLOAD DUP7 DUP4 ADD DUP3 ADD MSTORE ADD PUSH2 0xA5C JUMP JUMPDEST POP PUSH1 0x0 PUSH1 0x20 DUP3 DUP7 ADD ADD MSTORE PUSH1 0x20 PUSH1 0x1F NOT PUSH1 0x1F DUP4 ADD AND DUP6 ADD ADD SWAP2 POP POP SWAP3 SWAP2 POP POP JUMP JUMPDEST PUSH1 0x20 DUP2 MSTORE PUSH1 0x0 PUSH1 0x1 DUP1 PUSH1 0xA0 SHL SUB DUP1 DUP5 MLOAD AND PUSH1 0x20 DUP5 ADD MSTORE DUP1 PUSH1 0x20 DUP6 ADD MLOAD AND PUSH1 0x40 DUP5 ADD MSTORE POP PUSH1 0x40 DUP4 ADD MLOAD PUSH1 0x60 DUP4 ADD MSTORE PUSH1 0x60 DUP4 ADD MLOAD PUSH2 0x100 DUP1 PUSH1 0x80 DUP6 ADD MSTORE PUSH2 0xAE1 PUSH2 0x120 DUP6 ADD DUP4 PUSH2 0xA52 JUMP JUMPDEST SWAP2 POP PUSH1 0x80 DUP6 ADD MLOAD PUSH2 0xAF6 PUSH1 0xA0 DUP7 ADD DUP3 ISZERO ISZERO SWAP1 MSTORE JUMP JUMPDEST POP PUSH1 0xA0 DUP6 ADD MLOAD DUP1 ISZERO ISZERO PUSH1 0xC0 DUP7 ADD MSTORE POP PUSH1 0xC0 DUP6 ADD MLOAD PUSH1 0xE0 DUP6 ADD MSTORE PUSH1 0xE0 DUP6 ADD MLOAD DUP2 DUP6 ADD MSTORE POP DUP1 SWAP2 POP POP SWAP3 SWAP2 POP POP JUMP JUMPDEST PUSH1 0x1 PUSH1 0x1 PUSH1 0xA0 SHL SUB DUP2 AND DUP2 EQ PUSH2 0x33F JUMPI PUSH1 0x0 DUP1 REVERT JUMPDEST PUSH1 0x0 DUP1 PUSH1 0x40 DUP4 DUP6 SUB SLT ISZERO PUSH2 0xB4B JUMPI PUSH1 0x0 DUP1 REVERT JUMPDEST DUP3 CALLDATALOAD SWAP2 POP PUSH1 0x20 DUP4 ADD CALLDATALOAD PUSH2 0xB5D DUP2 PUSH2 0xB23 JUMP JUMPDEST DUP1 SWAP2 POP POP SWAP3 POP SWAP3 SWAP1 POP JUMP JUMPDEST PUSH1 0x0 PUSH1 0x20 DUP3 DUP5 SUB SLT ISZERO PUSH2 0xB7A JUMPI PUSH1 0x0 DUP1 REVERT JUMPDEST DUP2 CALLDATALOAD PUSH2 0xB85 DUP2 PUSH2 0xB23 JUMP JUMPDEST SWAP4 SWAP3 POP POP POP JUMP JUMPDEST PUSH4 0x4E487B71 PUSH1 0xE0 SHL PUSH1 0x0 MSTORE PUSH1 0x41 PUSH1 0x4 MSTORE PUSH1 0x24 PUSH1 0x0 REVERT JUMPDEST PUSH1 0x1 DUP2 DUP2 SHR SWAP1 DUP3 AND DUP1 PUSH2 0xBB6 JUMPI PUSH1 0x7F DUP3 AND SWAP2 POP JUMPDEST PUSH1 0x20 DUP3 LT DUP2 SUB PUSH2 0xBD6 JUMPI PUSH4 0x4E487B71 PUSH1 0xE0 SHL PUSH1 0x0 MSTORE PUSH1 0x22 PUSH1 0x4 MSTORE PUSH1 0x24 PUSH1 0x0 REVERT JUMPDEST POP SWAP2 SWAP1 POP JUMP JUMPDEST PUSH1 0x1F DUP3 GT ISZERO PUSH2 0xC28 JUMPI PUSH1 0x0 DUP2 PUSH1 0x0 MSTORE PUSH1 0x20 PUSH1 0x0 KECCAK256 PUSH1 0x1F DUP6 ADD PUSH1 0x5 SHR DUP2 ADD PUSH1 0x20 DUP7 LT ISZERO PUSH2 0xC05 JUMPI POP DUP1 JUMPDEST PUSH1 0x1F DUP6 ADD PUSH1 0x5 SHR DUP3 ADD SWAP2 POP JUMPDEST DUP2 DUP2 LT ISZERO PUSH2 0xC24 JUMPI DUP3 DUP2 SSTORE PUSH1 0x1 ADD PUSH2 0xC11 JUMP JUMPDEST POP POP POP JUMPDEST POP POP POP JUMP JUMPDEST PUSH8 0xFFFFFFFFFFFFFFFF DUP4 GT ISZERO PUSH2 0xC45 JUMPI PUSH2 0xC45 PUSH2 0xB8C JUMP JUMPDEST PUSH2 0xC59 DUP4 PUSH2 0xC53 DUP4 SLOAD PUSH2 0xBA2 JUMP JUMPDEST DUP4 PUSH2 0xBDC JUMP JUMPDEST PUSH1 0x0 PUSH1 0x1F DUP5 GT PUSH1 0x1 DUP2 EQ PUSH2 0xC8D JUMPI PUSH1 0x0 DUP6 ISZERO PUSH2 0xC75 JUMPI POP DUP4 DUP3 ADD CALLDATALOAD JUMPDEST PUSH1 0x0 NOT PUSH1 0x3 DUP8 SWAP1 SHL SHR NOT AND PUSH1 0x1 DUP7 SWAP1 SHL OR DUP4 SSTORE PUSH2 0xCE7 JUMP JUMPDEST PUSH1 0x0 DUP4 DUP2 MSTORE PUSH1 0x20 SWAP1 KECCAK256 PUSH1 0x1F NOT DUP7 AND SWAP1 DUP4 JUMPDEST DUP3 DUP2 LT ISZERO PUSH2 0xCBE JUMPI DUP7 DUP6 ADD CALLDATALOAD DUP3 SSTORE PUSH1 0x20 SWAP5 DUP6 ADD SWAP5 PUSH1 0x1 SWAP1 SWAP3 ADD SWAP2 ADD PUSH2 0xC9E JUMP JUMPDEST POP DUP7 DUP3 LT ISZERO PUSH2 0xCDB JUMPI PUSH1 0x0 NOT PUSH1 0xF8 DUP9 PUSH1 0x3 SHL AND SHR NOT DUP5 DUP8 ADD CALLDATALOAD AND DUP2 SSTORE JUMPDEST POP POP PUSH1 0x1 DUP6 PUSH1 0x1 SHL ADD DUP4 SSTORE JUMPDEST POP POP POP POP POP JUMP JUMPDEST PUSH1 0x20 DUP2 MSTORE DUP2 PUSH1 0x20 DUP3 ADD MSTORE DUP2 DUP4 PUSH1 0x40 DUP4 ADD CALLDATACOPY PUSH1 0x0 DUP2 DUP4 ADD PUSH1 0x40 SWAP1 DUP2 ADD SWAP2 SWAP1 SWAP2 MSTORE PUSH1 0x1F SWAP1 SWAP3 ADD PUSH1 0x1F NOT AND ADD ADD SWAP2 SWAP1 POP JUMP JUMPDEST DUP2 MLOAD PUSH8 0xFFFFFFFFFFFFFFFF DUP2 GT ISZERO PUSH2 0xD37 JUMPI PUSH2 0xD37 PUSH2 0xB8C JUMP JUMPDEST PUSH2 0xD4B DUP2 PUSH2 0xD45 DUP5 SLOAD PUSH2 0xBA2 JUMP JUMPDEST DUP5 PUSH2 0xBDC JUMP JUMPDEST PUSH1 0x20 DUP1 PUSH1 0x1F DUP4 GT PUSH1 0x1 DUP2 EQ PUSH2 0xD80 JUMPI PUSH1 0x0 DUP5 ISZERO PUSH2 0xD68 JUMPI POP DUP6 DUP4 ADD MLOAD JUMPDEST PUSH1 0x0 NOT PUSH1 0x3 DUP7 SWAP1 SHL SHR NOT AND PUSH1 0x1 DUP6 SWAP1 SHL OR DUP6 SSTORE PUSH2 0xC24 JUMP JUMPDEST PUSH1 0x0 DUP6 DUP2 MSTORE PUSH1 0x20 DUP2 KECCAK256 PUSH1 0x1F NOT DUP7 AND SWAP2 JUMPDEST DUP3 DUP2 LT ISZERO PUSH2 0xDAF JUMPI DUP9 DUP7 ADD MLOAD DUP3 SSTORE SWAP5 DUP5 ADD SWAP5 PUSH1 0x1 SWAP1 SWAP2 ADD SWAP1 DUP5 ADD PUSH2 0xD90 JUMP JUMPDEST POP DUP6 DUP3 LT ISZERO PUSH2 0xDCD JUMPI DUP8 DUP6 ADD MLOAD PUSH1 0x0 NOT PUSH1 0x3 DUP9 SWAP1 SHL PUSH1 0xF8 AND SHR NOT AND DUP2 SSTORE JUMPDEST POP POP POP POP POP PUSH1 0x1 SWAP1 DUP2 SHL ADD SWAP1 SSTORE POP JUMP INVALID LOG2 PUSH5 0x6970667358 0x22 SLT KECCAK256 0xBA SWAP2 DUP4 RETURNDATACOPY 0xB5 PUSH20 0x3D6A1FEC4CC7514B3FEBB0AF1A127405C2165709 POP 0xC5 PUSH24 0x94CDE64736F6C6343000819003300000000000000000000 "},"methodIdentifiers":{"anchorDagProof(uint256,string)":"37ea1295","createEscrow(uint256,address)":"dbcd72f0","getEscrow(uint256)":"7d19e596","owner()":"8da5cb5b","refund(uint256)":"278ecde1","release(uint256)":"37bdc99b","renounceOwnership()":"715018a6","transferOwnership(address)":"f2fde38b"}}}}}