{
  "_format": "hh-sol-artifact-1",
  "contractName": "BountyRegistry",
  "sourceName": "contracts/BountyRegistry.sol",
  "abi": [
    {
      "inputs": [
        {
          "internalType": "uint256",
          "name": "bountyId",
          "type": "uint256"
        }
      ],
      "name": "BountyNotActive",
      "type": "error"
    },
    {
      "inputs": [
        {
          "internalType": "uint256",
          "name": "bountyId",
          "type": "uint256"
        }
      ],
      "name": "BountyNotFound",
      "type": "error"
    },
    {
      "inputs": [
        {
          "internalType": "uint256",
          "name": "bountyId",
          "type": "uint256"
        },
        {
          "internalType": "uint256",
          "name": "requestedIndex",
          "type": "uint256"
        }
      ],
      "name": "SubmissionIndexOutOfBounds",
      "type": "error"
    },
    {
      "anonymous": false,
      "inputs": [
        {
          "indexed": true,
          "internalType": "uint256",
          "name": "bountyId",
          "type": "uint256"
        },
        {
          "indexed": true,
          "internalType": "address",
          "name": "creator",
          "type": "address"
        },
        {
          "indexed": false,
          "internalType": "string",
          "name": "metadataUri",
          "type": "string"
        }
      ],
      "name": "BountyCreated",
      "type": "event"
    },
    {
      "anonymous": false,
      "inputs": [
        {
          "indexed": true,
          "internalType": "uint256",
          "name": "bountyId",
          "type": "uint256"
        },
        {
          "indexed": false,
          "internalType": "string",
          "name": "storyAssetId",
          "type": "string"
        },
        {
          "indexed": false,
          "internalType": "string",
          "name": "icpCanisterId",
          "type": "string"
        },
        {
          "indexed": false,
          "internalType": "string",
          "name": "dagProofHash",
          "type": "string"
        }
      ],
      "name": "BountyProofsLinked",
      "type": "event"
    },
    {
      "anonymous": false,
      "inputs": [
        {
          "indexed": true,
          "internalType": "uint256",
          "name": "bountyId",
          "type": "uint256"
        },
        {
          "indexed": false,
          "internalType": "bool",
          "name": "active",
          "type": "bool"
        }
      ],
      "name": "BountyStatusUpdated",
      "type": "event"
    },
    {
      "anonymous": false,
      "inputs": [
        {
          "indexed": true,
          "internalType": "uint256",
          "name": "bountyId",
          "type": "uint256"
        },
        {
          "indexed": true,
          "internalType": "address",
          "name": "submitter",
          "type": "address"
        },
        {
          "indexed": false,
          "internalType": "string",
          "name": "docId",
          "type": "string"
        },
        {
          "indexed": false,
          "internalType": "string",
          "name": "storyAssetId",
          "type": "string"
        },
        {
          "indexed": false,
          "internalType": "string",
          "name": "icpCanisterId",
          "type": "string"
        },
        {
          "indexed": false,
          "internalType": "string",
          "name": "dagProofHash",
          "type": "string"
        }
      ],
      "name": "SubmissionRegistered",
      "type": "event"
    },
    {
      "inputs": [
        {
          "internalType": "uint256",
          "name": "bountyId",
          "type": "uint256"
        }
      ],
      "name": "getBounty",
      "outputs": [
        {
          "components": [
            {
              "internalType": "address",
              "name": "creator",
              "type": "address"
            },
            {
              "internalType": "string",
              "name": "metadataUri",
              "type": "string"
            },
            {
              "internalType": "string",
              "name": "storyAssetId",
              "type": "string"
            },
            {
              "internalType": "string",
              "name": "icpCanisterId",
              "type": "string"
            },
            {
              "internalType": "string",
              "name": "dagProofHash",
              "type": "string"
            },
            {
              "internalType": "bool",
              "name": "active",
              "type": "bool"
            }
          ],
          "internalType": "struct BountyRegistry.Bounty",
          "name": "",
          "type": "tuple"
        }
      ],
      "stateMutability": "view",
      "type": "function"
    },
    {
      "inputs": [
        {
          "internalType": "uint256",
          "name": "bountyId",
          "type": "uint256"
        },
        {
          "internalType": "uint256",
          "name": "index",
          "type": "uint256"
        }
      ],
      "name": "getSubmission",
      "outputs": [
        {
          "components": [
            {
              "internalType": "address",
              "name": "submitter",
              "type": "address"
            },
            {
              "internalType": "string",
              "name": "docId",
              "type": "string"
            },
            {
              "internalType": "string",
              "name": "storyAssetId",
              "type": "string"
            },
            {
              "internalType": "string",
              "name": "icpCanisterId",
              "type": "string"
            },
            {
              "internalType": "string",
              "name": "dagProofHash",
              "type": "string"
            },
            {
              "internalType": "uint256",
              "name": "timestamp",
              "type": "uint256"
            }
          ],
          "internalType": "struct BountyRegistry.Submission",
          "name": "",
          "type": "tuple"
        }
      ],
      "stateMutability": "view",
      "type": "function"
    },
    {
      "inputs": [
        {
          "internalType": "uint256",
          "name": "bountyId",
          "type": "uint256"
        }
      ],
      "name": "getSubmissionCount",
      "outputs": [
        {
          "internalType": "uint256",
          "name": "",
          "type": "uint256"
        }
      ],
      "stateMutability": "view",
      "type": "function"
    },
    {
      "inputs": [
        {
          "internalType": "uint256",
          "name": "bountyId",
          "type": "uint256"
        },
        {
          "internalType": "string",
          "name": "storyAssetId",
          "type": "string"
        },
        {
          "internalType": "string",
          "name": "icpCanisterId",
          "type": "string"
        },
        {
          "internalType": "string",
          "name": "dagProofHash",
          "type": "string"
        }
      ],
      "name": "linkBountyProofs",
      "outputs": [],
      "stateMutability": "nonpayable",
      "type": "function"
    },
    {
      "inputs": [
        {
          "internalType": "uint256",
          "name": "bountyId",
          "type": "uint256"
        },
        {
          "internalType": "string",
          "name": "docId",
          "type": "string"
        },
        {
          "internalType": "string",
          "name": "storyAssetId",
          "type": "string"
        },
        {
          "internalType": "string",
          "name": "icpCanisterId",
          "type": "string"
        },
        {
          "internalType": "string",
          "name": "dagProofHash",
          "type": "string"
        }
      ],
      "name": "registerSubmission",
      "outputs": [],
      "stateMutability": "nonpayable",
      "type": "function"
    },
    {
      "inputs": [
        {
          "internalType": "uint256",
          "name": "bountyId",
          "type": "uint256"
        },
        {
          "internalType": "string",
          "name": "metadataUri",
          "type": "string"
        },
        {
          "internalType": "bool",
          "name": "active",
          "type": "bool"
        }
      ],
      "name": "upsertBounty",
      "outputs": [],
      "stateMutability": "nonpayable",
      "type": "function"
    }
  ],
  "bytecode": "0x6080604052348015600f57600080fd5b506112768061001f6000396000f3fe608060405234801561001057600080fd5b50600436106100625760003560e01c806306645a611461006757806306d9d5fe1461007c5780637be24cb81461008f578063b7ed7071146100c2578063ee8c4bbf146100e2578063f38d62bc14610102575b600080fd5b61007a610075366004610b87565b610115565b005b61007a61008a366004610beb565b6101f2565b6100af61009d366004610cbb565b60009081526001602052604090205490565b6040519081526020015b60405180910390f35b6100d56100d0366004610cd4565b610468565b6040516100b99190610d3c565b6100f56100f0366004610cbb565b61078c565b6040516100b99190610dda565b61007a610110366004610e7a565b610a89565b600084815260208190526040902080546001600160a01b03198116331782556001600160a01b0316156001820161014d858783610fbb565b5060058201805460ff191684151517905580156101ad57336001600160a01b0316867f7632d0f1c9149d7c7695d1f563f7154b106985f8d2d0b430dbd465ae3ab25b5487876040516101a09291906110a5565b60405180910390a36101ea565b857f1e205b69dedde3c9537ab6489db0fbbdfb4c6d5c5c5dd14e86a19c4dab1463c3846040516101e1911515815260200190565b60405180910390a25b505050505050565b600089815260208190526040902080546001600160a01b03166102305760405163728640f360e11b8152600481018b90526024015b60405180910390fd5b600581015460ff166102585760405163616b4a8360e01b8152600481018b9052602401610227565b600160008b81526020019081526020016000206040518060c00160405280336001600160a01b031681526020018b8b8080601f016020809104026020016040519081016040528093929190818152602001838380828437600092019190915250505090825250604080516020601f8c018190048102820181019092528a815291810191908b908b9081908401838280828437600092019190915250505090825250604080516020601f8a0181900481028201810190925288815291810191908990899081908401838280828437600092019190915250505090825250604080516020601f88018190048102820181019092528681529181019190879087908190840183828082843760009201829052509385525050426020938401525083546001808201865594825290829020835160069092020180546001600160a01b0319166001600160a01b039092169190911781559082015191929091908201906103c090826110c1565b50604082015160028201906103d590826110c1565b50606082015160038201906103ea90826110c1565b50608082015160048201906103ff90826110c1565b5060a082015181600501555050336001600160a01b03168a7f77bbef03e74ac9227fcdda5bcdc39228ec4e26358c8e1d8a7c7ea336ce9ae7088b8b8b8b8b8b8b8b604051610454989796959493929190611181565b60405180910390a350505050505050505050565b6104aa6040518060c0016040528060006001600160a01b0316815260200160608152602001606081526020016060815260200160608152602001600081525090565b60008381526001602052604090205482106104e25760405163b754f92960e01b81526004810184905260248101839052604401610227565b6000838152600160205260409020805483908110610502576105026111e1565b60009182526020918290206040805160c0810190915260069092020180546001600160a01b03168252600181018054929391929184019161054290610f34565b80601f016020809104026020016040519081016040528092919081815260200182805461056e90610f34565b80156105bb5780601f10610590576101008083540402835291602001916105bb565b820191906000526020600020905b81548152906001019060200180831161059e57829003601f168201915b505050505081526020016002820180546105d490610f34565b80601f016020809104026020016040519081016040528092919081815260200182805461060090610f34565b801561064d5780601f106106225761010080835404028352916020019161064d565b820191906000526020600020905b81548152906001019060200180831161063057829003601f168201915b5050505050815260200160038201805461066690610f34565b80601f016020809104026020016040519081016040528092919081815260200182805461069290610f34565b80156106df5780601f106106b4576101008083540402835291602001916106df565b820191906000526020600020905b8154815290600101906020018083116106c257829003601f168201915b505050505081526020016004820180546106f890610f34565b80601f016020809104026020016040519081016040528092919081815260200182805461072490610f34565b80156107715780601f1061074657610100808354040283529160200191610771565b820191906000526020600020905b81548152906001019060200180831161075457829003601f168201915b50505050508152602001600582015481525050905092915050565b6107d06040518060c0016040528060006001600160a01b03168152602001606081526020016060815260200160608152602001606081526020016000151581525090565b600082815260208181526040808320815160c0810190925280546001600160a01b03168252600181018054929391929184019161080c90610f34565b80601f016020809104026020016040519081016040528092919081815260200182805461083890610f34565b80156108855780601f1061085a57610100808354040283529160200191610885565b820191906000526020600020905b81548152906001019060200180831161086857829003601f168201915b5050505050815260200160028201805461089e90610f34565b80601f01602080910402602001604051908101604052809291908181526020018280546108ca90610f34565b80156109175780601f106108ec57610100808354040283529160200191610917565b820191906000526020600020905b8154815290600101906020018083116108fa57829003601f168201915b5050505050815260200160038201805461093090610f34565b80601f016020809104026020016040519081016040528092919081815260200182805461095c90610f34565b80156109a95780601f1061097e576101008083540402835291602001916109a9565b820191906000526020600020905b81548152906001019060200180831161098c57829003601f168201915b505050505081526020016004820180546109c290610f34565b80601f01602080910402602001604051908101604052809291908181526020018280546109ee90610f34565b8015610a3b5780601f10610a1057610100808354040283529160200191610a3b565b820191906000526020600020905b815481529060010190602001808311610a1e57829003601f168201915b50505091835250506005919091015460ff16151560209091015280519091506001600160a01b0316610a835760405163728640f360e11b815260048101849052602401610227565b92915050565b600087815260208190526040902080546001600160a01b0316610ac25760405163728640f360e11b815260048101899052602401610227565b60028101610ad1878983610fbb565b5060038101610ae1858783610fbb565b5060048101610af1838583610fbb565b50877fa3358874606e2185c12be8edb4f2e99b1534e4011d94b6cd2cf1d844d0c71121888888888888604051610b2c969594939291906111f7565b60405180910390a25050505050505050565b60008083601f840112610b5057600080fd5b50813567ffffffffffffffff811115610b6857600080fd5b602083019150836020828501011115610b8057600080fd5b9250929050565b60008060008060608587031215610b9d57600080fd5b84359350602085013567ffffffffffffffff811115610bbb57600080fd5b610bc787828801610b3e565b90945092505060408501358015158114610be057600080fd5b939692955090935050565b600080600080600080600080600060a08a8c031215610c0957600080fd5b8935985060208a013567ffffffffffffffff80821115610c2857600080fd5b610c348d838e01610b3e565b909a50985060408c0135915080821115610c4d57600080fd5b610c598d838e01610b3e565b909850965060608c0135915080821115610c7257600080fd5b610c7e8d838e01610b3e565b909650945060808c0135915080821115610c9757600080fd5b50610ca48c828d01610b3e565b915080935050809150509295985092959850929598565b600060208284031215610ccd57600080fd5b5035919050565b60008060408385031215610ce757600080fd5b50508035926020909101359150565b6000815180845260005b81811015610d1c57602081850181015186830182015201610d00565b506000602082860101526020601f19601f83011685010191505092915050565b602080825282516001600160a01b03168282015282015160c06040830152600090610d6a60e0840182610cf6565b90506040840151601f1980858403016060860152610d888383610cf6565b92506060860151915080858403016080860152610da58383610cf6565b925060808601519150808584030160a086015250610dc38282610cf6565b91505060a084015160c08401528091505092915050565b602080825282516001600160a01b03168282015282015160c06040830152600090610e0860e0840182610cf6565b90506040840151601f1980858403016060860152610e268383610cf6565b92506060860151915080858403016080860152610e438383610cf6565b925060808601519150808584030160a086015250610e618282610cf6565b91505060a0840151151560c08401528091505092915050565b60008060008060008060006080888a031215610e9557600080fd5b87359650602088013567ffffffffffffffff80821115610eb457600080fd5b610ec08b838c01610b3e565b909850965060408a0135915080821115610ed957600080fd5b610ee58b838c01610b3e565b909650945060608a0135915080821115610efe57600080fd5b50610f0b8a828b01610b3e565b989b979a50959850939692959293505050565b634e487b7160e01b600052604160045260246000fd5b600181811c90821680610f4857607f821691505b602082108103610f6857634e487b7160e01b600052602260045260246000fd5b50919050565b601f821115610fb6576000816000526020600020601f850160051c81016020861015610f975750805b601f850160051c820191505b818110156101ea57828155600101610fa3565b505050565b67ffffffffffffffff831115610fd357610fd3610f1e565b610fe783610fe18354610f34565b83610f6e565b6000601f84116001811461101b57600085156110035750838201355b600019600387901b1c1916600186901b178355611075565b600083815260209020601f19861690835b8281101561104c578685013582556020948501946001909201910161102c565b50868210156110695760001960f88860031b161c19848701351681555b505060018560011b0183555b5050505050565b81835281816020850137506000828201602090810191909152601f909101601f19169091010190565b6020815260006110b960208301848661107c565b949350505050565b815167ffffffffffffffff8111156110db576110db610f1e565b6110ef816110e98454610f34565b84610f6e565b602080601f831160018114611124576000841561110c5750858301515b600019600386901b1c1916600185901b1785556101ea565b600085815260208120601f198616915b8281101561115357888601518255948401946001909101908401611134565b50858210156111715787850151600019600388901b60f8161c191681555b5050505050600190811b01905550565b608081526000611195608083018a8c61107c565b82810360208401526111a881898b61107c565b905082810360408401526111bd81878961107c565b905082810360608401526111d281858761107c565b9b9a5050505050505050505050565b634e487b7160e01b600052603260045260246000fd5b60608152600061120b60608301888a61107c565b828103602084015261121e81878961107c565b9050828103604084015261123381858761107c565b999850505050505050505056fea26469706673582212208e4833eb817ad1aacd01dd62375bb0d6694498d3b61e0607dc67e685facd433c64736f6c63430008190033",
  "linkReferences": {},
  "deployedLinkReferences": {}
}