{
  "_format": "hh-sol-artifact-1",
  "contractName": "BountyEscrow",
  "sourceName": "contracts/BountyEscrow.sol",
  "abi": [
    {
      "inputs": [
        {
          "internalType": "address",
          "name": "initialOwner",
          "type": "address"
        }
      ],
      "stateMutability": "nonpayable",
      "type": "constructor"
    },
    {
      "inputs": [
        {
          "internalType": "uint256",
          "name": "bountyId",
          "type": "uint256"
        }
      ],
      "name": "AlreadyFinalized",
      "type": "error"
    },
    {
      "inputs": [
        {
          "internalType": "uint256",
          "name": "bountyId",
          "type": "uint256"
        }
      ],
      "name": "EscrowAlreadyExists",
      "type": "error"
    },
    {
      "inputs": [
        {
          "internalType": "uint256",
          "name": "bountyId",
          "type": "uint256"
        }
      ],
      "name": "EscrowNotFound",
      "type": "error"
    },
    {
      "inputs": [
        {
          "internalType": "uint256",
          "name": "bountyId",
          "type": "uint256"
        }
      ],
      "name": "NothingToRelease",
      "type": "error"
    },
    {
      "inputs": [
        {
          "internalType": "address",
          "name": "owner",
          "type": "address"
        }
      ],
      "name": "OwnableInvalidOwner",
      "type": "error"
    },
    {
      "inputs": [
        {
          "internalType": "address",
          "name": "account",
          "type": "address"
        }
      ],
      "name": "OwnableUnauthorizedAccount",
      "type": "error"
    },
    {
      "inputs": [],
      "name": "ReentrancyGuardReentrantCall",
      "type": "error"
    },
    {
      "anonymous": false,
      "inputs": [
        {
          "indexed": true,
          "internalType": "uint256",
          "name": "bountyId",
          "type": "uint256"
        },
        {
          "indexed": false,
          "internalType": "string",
          "name": "dagProofHash",
          "type": "string"
        }
      ],
      "name": "DagProofAnchored",
      "type": "event"
    },
    {
      "anonymous": false,
      "inputs": [
        {
          "indexed": true,
          "internalType": "uint256",
          "name": "bountyId",
          "type": "uint256"
        },
        {
          "indexed": true,
          "internalType": "address",
          "name": "funder",
          "type": "address"
        },
        {
          "indexed": true,
          "internalType": "address",
          "name": "beneficiary",
          "type": "address"
        },
        {
          "indexed": false,
          "internalType": "uint256",
          "name": "amount",
          "type": "uint256"
        }
      ],
      "name": "EscrowCreated",
      "type": "event"
    },
    {
      "anonymous": false,
      "inputs": [
        {
          "indexed": true,
          "internalType": "uint256",
          "name": "bountyId",
          "type": "uint256"
        },
        {
          "indexed": true,
          "internalType": "address",
          "name": "funder",
          "type": "address"
        },
        {
          "indexed": false,
          "internalType": "uint256",
          "name": "amount",
          "type": "uint256"
        }
      ],
      "name": "EscrowRefunded",
      "type": "event"
    },
    {
      "anonymous": false,
      "inputs": [
        {
          "indexed": true,
          "internalType": "uint256",
          "name": "bountyId",
          "type": "uint256"
        },
        {
          "indexed": true,
          "internalType": "address",
          "name": "beneficiary",
          "type": "address"
        },
        {
          "indexed": false,
          "internalType": "uint256",
          "name": "amount",
          "type": "uint256"
        }
      ],
      "name": "EscrowReleased",
      "type": "event"
    },
    {
      "anonymous": false,
      "inputs": [
        {
          "indexed": true,
          "internalType": "address",
          "name": "previousOwner",
          "type": "address"
        },
        {
          "indexed": true,
          "internalType": "address",
          "name": "newOwner",
          "type": "address"
        }
      ],
      "name": "OwnershipTransferred",
      "type": "event"
    },
    {
      "inputs": [
        {
          "internalType": "uint256",
          "name": "bountyId",
          "type": "uint256"
        },
        {
          "internalType": "string",
          "name": "dagProofHash",
          "type": "string"
        }
      ],
      "name": "anchorDagProof",
      "outputs": [],
      "stateMutability": "nonpayable",
      "type": "function"
    },
    {
      "inputs": [
        {
          "internalType": "uint256",
          "name": "bountyId",
          "type": "uint256"
        },
        {
          "internalType": "address payable",
          "name": "beneficiary",
          "type": "address"
        }
      ],
      "name": "createEscrow",
      "outputs": [],
      "stateMutability": "payable",
      "type": "function"
    },
    {
      "inputs": [
        {
          "internalType": "uint256",
          "name": "bountyId",
          "type": "uint256"
        }
      ],
      "name": "getEscrow",
      "outputs": [
        {
          "components": [
            {
              "internalType": "address",
              "name": "funder",
              "type": "address"
            },
            {
              "internalType": "address payable",
              "name": "beneficiary",
              "type": "address"
            },
            {
              "internalType": "uint256",
              "name": "amount",
              "type": "uint256"
            },
            {
              "internalType": "string",
              "name": "dagProofHash",
              "type": "string"
            },
            {
              "internalType": "bool",
              "name": "released",
              "type": "bool"
            },
            {
              "internalType": "bool",
              "name": "refunded",
              "type": "bool"
            },
            {
              "internalType": "uint256",
              "name": "createdAt",
              "type": "uint256"
            },
            {
              "internalType": "uint256",
              "name": "finalizedAt",
              "type": "uint256"
            }
          ],
          "internalType": "struct BountyEscrow.Escrow",
          "name": "",
          "type": "tuple"
        }
      ],
      "stateMutability": "view",
      "type": "function"
    },
    {
      "inputs": [],
      "name": "owner",
      "outputs": [
        {
          "internalType": "address",
          "name": "",
          "type": "address"
        }
      ],
      "stateMutability": "view",
      "type": "function"
    },
    {
      "inputs": [
        {
          "internalType": "uint256",
          "name": "bountyId",
          "type": "uint256"
        }
      ],
      "name": "refund",
      "outputs": [],
      "stateMutability": "nonpayable",
      "type": "function"
    },
    {
      "inputs": [
        {
          "internalType": "uint256",
          "name": "bountyId",
          "type": "uint256"
        }
      ],
      "name": "release",
      "outputs": [],
      "stateMutability": "nonpayable",
      "type": "function"
    },
    {
      "inputs": [],
      "name": "renounceOwnership",
      "outputs": [],
      "stateMutability": "nonpayable",
      "type": "function"
    },
    {
      "inputs": [
        {
          "internalType": "address",
          "name": "newOwner",
          "type": "address"
        }
      ],
      "name": "transferOwnership",
      "outputs": [],
      "stateMutability": "nonpayable",
      "type": "function"
    }
  ],
  "bytecode": "0x608060405234801561001057600080fd5b50604051610f14380380610f1483398101604081905261002f916100c2565b806001600160a01b03811661005e57604051631e4fbdf760e01b81526000600482015260240160405180910390fd5b61006781610072565b5050600180556100f2565b600080546001600160a01b038381166001600160a01b0319831681178455604051919092169283917f8be0079c531659141344cd1fd0a4f28419497f9722a3daafe3b4186f6b6457e09190a35050565b6000602082840312156100d457600080fd5b81516001600160a01b03811681146100eb57600080fd5b9392505050565b610e13806101016000396000f3fe60806040526004361061007b5760003560e01c80637d19e5961161004e5780637d19e596146100f75780638da5cb5b1461012d578063dbcd72f014610155578063f2fde38b1461016857600080fd5b8063278ecde11461008057806337bdc99b146100a257806337ea1295146100c2578063715018a6146100e2575b600080fd5b34801561008c57600080fd5b506100a061009b3660046109bd565b610188565b005b3480156100ae57600080fd5b506100a06100bd3660046109bd565b610342565b3480156100ce57600080fd5b506100a06100dd3660046109d6565b6104eb565b3480156100ee57600080fd5b506100a06105b6565b34801561010357600080fd5b506101176101123660046109bd565b6105ca565b6040516101249190610a98565b60405180910390f35b34801561013957600080fd5b506000546040516001600160a01b039091168152602001610124565b6100a0610163366004610b38565b610747565b34801561017457600080fd5b506100a0610183366004610b68565b6108db565b610190610916565b610198610943565b600081815260026020526040812060058101549091036101d3576040516305b3479760e11b8152600481018390526024015b60405180910390fd5b600481015460ff16806101ef57506004810154610100900460ff165b156102105760405163f075432960e01b8152600481018390526024016101ca565b806002015460000361023857604051631af3fffb60e31b8152600481018390526024016101ca565b60028101805460009182905560048301805461ff00191661010017905542600684015582546040519192916001600160a01b039091169083908381818185875af1925050503d80600081146102a9576040519150601f19603f3d011682016040523d82523d6000602084013e6102ae565b606091505b50509050806102ef5760405162461bcd60e51b815260206004820152600d60248201526c1499599d5b990819985a5b1959609a1b60448201526064016101ca565b82546040518381526001600160a01b039091169085907feac97bc1917fcedc984e3d0671d4e83b359890323d5d1c2de32b28d17c356ced906020015b60405180910390a350505061033f60018055565b50565b61034a610916565b610352610943565b60008181526002602052604081206005810154909103610388576040516305b3479760e11b8152600481018390526024016101ca565b600481015460ff16806103a457506004810154610100900460ff165b156103c55760405163f075432960e01b8152600481018390526024016101ca565b80600201546000036103ed57604051631af3fffb60e31b8152600481018390526024016101ca565b60028101805460009182905560048301805460ff191660019081179091554260068501558301546040519192916001600160a01b039091169083908381818185875af1925050503d8060008114610460576040519150601f19603f3d011682016040523d82523d6000602084013e610465565b606091505b50509050806104a85760405162461bcd60e51b815260206004820152600f60248201526e151c985b9cd9995c8819985a5b1959608a1b60448201526064016101ca565b60018301546040518381526001600160a01b039091169085907f6244ed823ca6be0f11bc890c3fafcf3c29cb23420c14243642e930b5e07e6d0a9060200161032b565b6104f3610916565b60008381526002602052604081206005810154909103610529576040516305b3479760e11b8152600481018590526024016101ca565b600481015460ff168061054557506004810154610100900460ff165b156105665760405163f075432960e01b8152600481018590526024016101ca565b60038101610575838583610c2d565b50837f3001cfeada10ed0e0ebc2f81596cc0bdec72095a33c239e0130f9d6c9398a7ee84846040516105a8929190610cee565b60405180910390a250505050565b6105be610916565b6105c8600061096d565b565b60408051610100810182526000808252602082018190529181018290526060808201526080810182905260a0810182905260c0810182905260e0810191909152600082815260026020818152604080842081516101008101835281546001600160a01b03908116825260018301541693810193909352928301549082015260038201805491929160608401919061066090610ba2565b80601f016020809104026020016040519081016040528092919081815260200182805461068c90610ba2565b80156106d95780601f106106ae576101008083540402835291602001916106d9565b820191906000526020600020905b8154815290600101906020018083116106bc57829003601f168201915b5050509183525050600482015460ff8082161515602084015261010090910416151560408201526005820154606082015260069091015460809091015260c0810151909150600003610741576040516305b3479760e11b8152600481018490526024016101ca565b92915050565b6000828152600260205260409020600501541561077a5760405163cb7a06f760e01b8152600481018390526024016101ca565b3460000361079e57604051631af3fffb60e31b8152600481018390526024016101ca565b60408051610100810182523381526001600160a01b03838116602080840191825234848601908152855180830187526000808252606087019182526080870181905260a087018190524260c088015260e0870181905289815260029384905296909620855181546001600160a01b03199081169187169190911782559351600182018054909516951694909417909255905190820155915190919060038201906108489082610d1d565b50608082015160048201805460a085015115156101000261ff00199315159390931661ffff199091161791909117905560c0820151600582015560e0909101516006909101556040516001600160a01b03821690339084907f9405ad0a6208539879349284d71265479b1623846f70303da1f9890d6e8c10a7906108cf9034815260200190565b60405180910390a45050565b6108e3610916565b6001600160a01b03811661090d57604051631e4fbdf760e01b8152600060048201526024016101ca565b61033f8161096d565b6000546001600160a01b031633146105c85760405163118cdaa760e01b81523360048201526024016101ca565b60026001540361096657604051633ee5aeb560e01b815260040160405180910390fd5b6002600155565b600080546001600160a01b038381166001600160a01b0319831681178455604051919092169283917f8be0079c531659141344cd1fd0a4f28419497f9722a3daafe3b4186f6b6457e09190a35050565b6000602082840312156109cf57600080fd5b5035919050565b6000806000604084860312156109eb57600080fd5b83359250602084013567ffffffffffffffff80821115610a0a57600080fd5b818601915086601f830112610a1e57600080fd5b813581811115610a2d57600080fd5b876020828501011115610a3f57600080fd5b6020830194508093505050509250925092565b6000815180845260005b81811015610a7857602081850181015186830182015201610a5c565b506000602082860101526020601f19601f83011685010191505092915050565b60208152600060018060a01b0380845116602084015280602085015116604084015250604083015160608301526060830151610100806080850152610ae1610120850183610a52565b91506080850151610af660a086018215159052565b5060a085015180151560c08601525060c085015160e085015260e085015181850152508091505092915050565b6001600160a01b038116811461033f57600080fd5b60008060408385031215610b4b57600080fd5b823591506020830135610b5d81610b23565b809150509250929050565b600060208284031215610b7a57600080fd5b8135610b8581610b23565b9392505050565b634e487b7160e01b600052604160045260246000fd5b600181811c90821680610bb657607f821691505b602082108103610bd657634e487b7160e01b600052602260045260246000fd5b50919050565b601f821115610c28576000816000526020600020601f850160051c81016020861015610c055750805b601f850160051c820191505b81811015610c2457828155600101610c11565b5050505b505050565b67ffffffffffffffff831115610c4557610c45610b8c565b610c5983610c538354610ba2565b83610bdc565b6000601f841160018114610c8d5760008515610c755750838201355b600019600387901b1c1916600186901b178355610ce7565b600083815260209020601f19861690835b82811015610cbe5786850135825560209485019460019092019101610c9e565b5086821015610cdb5760001960f88860031b161c19848701351681555b505060018560011b0183555b5050505050565b60208152816020820152818360408301376000818301604090810191909152601f909201601f19160101919050565b815167ffffffffffffffff811115610d3757610d37610b8c565b610d4b81610d458454610ba2565b84610bdc565b602080601f831160018114610d805760008415610d685750858301515b600019600386901b1c1916600185901b178555610c24565b600085815260208120601f198616915b82811015610daf57888601518255948401946001909101908401610d90565b5085821015610dcd5787850151600019600388901b60f8161c191681555b5050505050600190811b0190555056fea2646970667358221220ba91833eb5733d6a1fec4cc7514b3febb0af1a127405c216570950c577094cde64736f6c63430008190033",
  "linkReferences": {},
  "deployedLinkReferences": {}
}