{
  "_format": "hh-sol-artifact-1",
  "contractName": "HakiToken",
  "sourceName": "contracts/HakiToken.sol",
  "abi": [
    {
      "inputs": [
        {
          "internalType": "address",
          "name": "admin",
          "type": "address"
        }
      ],
      "stateMutability": "nonpayable",
      "type": "constructor"
    },
    {
      "inputs": [],
      "name": "AccessControlBadConfirmation",
      "type": "error"
    },
    {
      "inputs": [
        {
          "internalType": "address",
          "name": "account",
          "type": "address"
        },
        {
          "internalType": "bytes32",
          "name": "neededRole",
          "type": "bytes32"
        }
      ],
      "name": "AccessControlUnauthorizedAccount",
      "type": "error"
    },
    {
      "inputs": [
        {
          "internalType": "address",
          "name": "spender",
          "type": "address"
        },
        {
          "internalType": "uint256",
          "name": "allowance",
          "type": "uint256"
        },
        {
          "internalType": "uint256",
          "name": "needed",
          "type": "uint256"
        }
      ],
      "name": "ERC20InsufficientAllowance",
      "type": "error"
    },
    {
      "inputs": [
        {
          "internalType": "address",
          "name": "sender",
          "type": "address"
        },
        {
          "internalType": "uint256",
          "name": "balance",
          "type": "uint256"
        },
        {
          "internalType": "uint256",
          "name": "needed",
          "type": "uint256"
        }
      ],
      "name": "ERC20InsufficientBalance",
      "type": "error"
    },
    {
      "inputs": [
        {
          "internalType": "address",
          "name": "approver",
          "type": "address"
        }
      ],
      "name": "ERC20InvalidApprover",
      "type": "error"
    },
    {
      "inputs": [
        {
          "internalType": "address",
          "name": "receiver",
          "type": "address"
        }
      ],
      "name": "ERC20InvalidReceiver",
      "type": "error"
    },
    {
      "inputs": [
        {
          "internalType": "address",
          "name": "sender",
          "type": "address"
        }
      ],
      "name": "ERC20InvalidSender",
      "type": "error"
    },
    {
      "inputs": [
        {
          "internalType": "address",
          "name": "spender",
          "type": "address"
        }
      ],
      "name": "ERC20InvalidSpender",
      "type": "error"
    },
    {
      "anonymous": false,
      "inputs": [
        {
          "indexed": true,
          "internalType": "address",
          "name": "owner",
          "type": "address"
        },
        {
          "indexed": true,
          "internalType": "address",
          "name": "spender",
          "type": "address"
        },
        {
          "indexed": false,
          "internalType": "uint256",
          "name": "value",
          "type": "uint256"
        }
      ],
      "name": "Approval",
      "type": "event"
    },
    {
      "anonymous": false,
      "inputs": [
        {
          "indexed": true,
          "internalType": "bytes32",
          "name": "workflowId",
          "type": "bytes32"
        },
        {
          "indexed": true,
          "internalType": "address",
          "name": "to",
          "type": "address"
        },
        {
          "indexed": false,
          "internalType": "uint256",
          "name": "amount",
          "type": "uint256"
        },
        {
          "indexed": false,
          "internalType": "string",
          "name": "storyAssetId",
          "type": "string"
        },
        {
          "indexed": false,
          "internalType": "string",
          "name": "icpCanisterId",
          "type": "string"
        },
        {
          "indexed": false,
          "internalType": "string",
          "name": "dagProofHash",
          "type": "string"
        }
      ],
      "name": "ProvenanceLogged",
      "type": "event"
    },
    {
      "anonymous": false,
      "inputs": [
        {
          "indexed": true,
          "internalType": "bytes32",
          "name": "role",
          "type": "bytes32"
        },
        {
          "indexed": true,
          "internalType": "bytes32",
          "name": "previousAdminRole",
          "type": "bytes32"
        },
        {
          "indexed": true,
          "internalType": "bytes32",
          "name": "newAdminRole",
          "type": "bytes32"
        }
      ],
      "name": "RoleAdminChanged",
      "type": "event"
    },
    {
      "anonymous": false,
      "inputs": [
        {
          "indexed": true,
          "internalType": "bytes32",
          "name": "role",
          "type": "bytes32"
        },
        {
          "indexed": true,
          "internalType": "address",
          "name": "account",
          "type": "address"
        },
        {
          "indexed": true,
          "internalType": "address",
          "name": "sender",
          "type": "address"
        }
      ],
      "name": "RoleGranted",
      "type": "event"
    },
    {
      "anonymous": false,
      "inputs": [
        {
          "indexed": true,
          "internalType": "bytes32",
          "name": "role",
          "type": "bytes32"
        },
        {
          "indexed": true,
          "internalType": "address",
          "name": "account",
          "type": "address"
        },
        {
          "indexed": true,
          "internalType": "address",
          "name": "sender",
          "type": "address"
        }
      ],
      "name": "RoleRevoked",
      "type": "event"
    },
    {
      "anonymous": false,
      "inputs": [
        {
          "indexed": true,
          "internalType": "address",
          "name": "from",
          "type": "address"
        },
        {
          "indexed": true,
          "internalType": "address",
          "name": "to",
          "type": "address"
        },
        {
          "indexed": false,
          "internalType": "uint256",
          "name": "value",
          "type": "uint256"
        }
      ],
      "name": "Transfer",
      "type": "event"
    },
    {
      "inputs": [],
      "name": "DEFAULT_ADMIN_ROLE",
      "outputs": [
        {
          "internalType": "bytes32",
          "name": "",
          "type": "bytes32"
        }
      ],
      "stateMutability": "view",
      "type": "function"
    },
    {
      "inputs": [],
      "name": "MINTER_ROLE",
      "outputs": [
        {
          "internalType": "bytes32",
          "name": "",
          "type": "bytes32"
        }
      ],
      "stateMutability": "view",
      "type": "function"
    },
    {
      "inputs": [
        {
          "internalType": "address",
          "name": "owner",
          "type": "address"
        },
        {
          "internalType": "address",
          "name": "spender",
          "type": "address"
        }
      ],
      "name": "allowance",
      "outputs": [
        {
          "internalType": "uint256",
          "name": "",
          "type": "uint256"
        }
      ],
      "stateMutability": "view",
      "type": "function"
    },
    {
      "inputs": [
        {
          "internalType": "address",
          "name": "spender",
          "type": "address"
        },
        {
          "internalType": "uint256",
          "name": "value",
          "type": "uint256"
        }
      ],
      "name": "approve",
      "outputs": [
        {
          "internalType": "bool",
          "name": "",
          "type": "bool"
        }
      ],
      "stateMutability": "nonpayable",
      "type": "function"
    },
    {
      "inputs": [
        {
          "internalType": "address",
          "name": "account",
          "type": "address"
        }
      ],
      "name": "balanceOf",
      "outputs": [
        {
          "internalType": "uint256",
          "name": "",
          "type": "uint256"
        }
      ],
      "stateMutability": "view",
      "type": "function"
    },
    {
      "inputs": [],
      "name": "decimals",
      "outputs": [
        {
          "internalType": "uint8",
          "name": "",
          "type": "uint8"
        }
      ],
      "stateMutability": "view",
      "type": "function"
    },
    {
      "inputs": [
        {
          "internalType": "bytes32",
          "name": "role",
          "type": "bytes32"
        }
      ],
      "name": "getRoleAdmin",
      "outputs": [
        {
          "internalType": "bytes32",
          "name": "",
          "type": "bytes32"
        }
      ],
      "stateMutability": "view",
      "type": "function"
    },
    {
      "inputs": [
        {
          "internalType": "address",
          "name": "account",
          "type": "address"
        }
      ],
      "name": "grantMinterRole",
      "outputs": [],
      "stateMutability": "nonpayable",
      "type": "function"
    },
    {
      "inputs": [
        {
          "internalType": "bytes32",
          "name": "role",
          "type": "bytes32"
        },
        {
          "internalType": "address",
          "name": "account",
          "type": "address"
        }
      ],
      "name": "grantRole",
      "outputs": [],
      "stateMutability": "nonpayable",
      "type": "function"
    },
    {
      "inputs": [
        {
          "internalType": "bytes32",
          "name": "role",
          "type": "bytes32"
        },
        {
          "internalType": "address",
          "name": "account",
          "type": "address"
        }
      ],
      "name": "hasRole",
      "outputs": [
        {
          "internalType": "bool",
          "name": "",
          "type": "bool"
        }
      ],
      "stateMutability": "view",
      "type": "function"
    },
    {
      "inputs": [
        {
          "internalType": "address",
          "name": "to",
          "type": "address"
        },
        {
          "internalType": "uint256",
          "name": "amount",
          "type": "uint256"
        },
        {
          "internalType": "string",
          "name": "storyAssetId",
          "type": "string"
        },
        {
          "internalType": "string",
          "name": "icpCanisterId",
          "type": "string"
        },
        {
          "internalType": "string",
          "name": "dagProofHash",
          "type": "string"
        },
        {
          "internalType": "string",
          "name": "workflowTag",
          "type": "string"
        }
      ],
      "name": "mintWithProvenance",
      "outputs": [],
      "stateMutability": "nonpayable",
      "type": "function"
    },
    {
      "inputs": [],
      "name": "name",
      "outputs": [
        {
          "internalType": "string",
          "name": "",
          "type": "string"
        }
      ],
      "stateMutability": "view",
      "type": "function"
    },
    {
      "inputs": [
        {
          "internalType": "bytes32",
          "name": "workflowId",
          "type": "bytes32"
        }
      ],
      "name": "provenanceByWorkflow",
      "outputs": [
        {
          "components": [
            {
              "internalType": "string",
              "name": "storyAssetId",
              "type": "string"
            },
            {
              "internalType": "string",
              "name": "icpCanisterId",
              "type": "string"
            },
            {
              "internalType": "string",
              "name": "dagProofHash",
              "type": "string"
            },
            {
              "internalType": "uint256",
              "name": "mintedAmount",
              "type": "uint256"
            },
            {
              "internalType": "uint256",
              "name": "timestamp",
              "type": "uint256"
            }
          ],
          "internalType": "struct HakiToken.Provenance",
          "name": "",
          "type": "tuple"
        }
      ],
      "stateMutability": "view",
      "type": "function"
    },
    {
      "inputs": [
        {
          "internalType": "bytes32",
          "name": "role",
          "type": "bytes32"
        },
        {
          "internalType": "address",
          "name": "callerConfirmation",
          "type": "address"
        }
      ],
      "name": "renounceRole",
      "outputs": [],
      "stateMutability": "nonpayable",
      "type": "function"
    },
    {
      "inputs": [
        {
          "internalType": "address",
          "name": "account",
          "type": "address"
        }
      ],
      "name": "revokeMinterRole",
      "outputs": [],
      "stateMutability": "nonpayable",
      "type": "function"
    },
    {
      "inputs": [
        {
          "internalType": "bytes32",
          "name": "role",
          "type": "bytes32"
        },
        {
          "internalType": "address",
          "name": "account",
          "type": "address"
        }
      ],
      "name": "revokeRole",
      "outputs": [],
      "stateMutability": "nonpayable",
      "type": "function"
    },
    {
      "inputs": [
        {
          "internalType": "bytes4",
          "name": "interfaceId",
          "type": "bytes4"
        }
      ],
      "name": "supportsInterface",
      "outputs": [
        {
          "internalType": "bool",
          "name": "",
          "type": "bool"
        }
      ],
      "stateMutability": "view",
      "type": "function"
    },
    {
      "inputs": [],
      "name": "symbol",
      "outputs": [
        {
          "internalType": "string",
          "name": "",
          "type": "string"
        }
      ],
      "stateMutability": "view",
      "type": "function"
    },
    {
      "inputs": [],
      "name": "totalSupply",
      "outputs": [
        {
          "internalType": "uint256",
          "name": "",
          "type": "uint256"
        }
      ],
      "stateMutability": "view",
      "type": "function"
    },
    {
      "inputs": [
        {
          "internalType": "address",
          "name": "to",
          "type": "address"
        },
        {
          "internalType": "uint256",
          "name": "value",
          "type": "uint256"
        }
      ],
      "name": "transfer",
      "outputs": [
        {
          "internalType": "bool",
          "name": "",
          "type": "bool"
        }
      ],
      "stateMutability": "nonpayable",
      "type": "function"
    },
    {
      "inputs": [
        {
          "internalType": "address",
          "name": "from",
          "type": "address"
        },
        {
          "internalType": "address",
          "name": "to",
          "type": "address"
        },
        {
          "internalType": "uint256",
          "name": "value",
          "type": "uint256"
        }
      ],
      "name": "transferFrom",
      "outputs": [
        {
          "internalType": "bool",
          "name": "",
          "type": "bool"
        }
      ],
      "stateMutability": "nonpayable",
      "type": "function"
    }
  ],
  "bytecode": "0x608060405234801561001057600080fd5b5060405161168338038061168383398101604081905261002f91610182565b6040518060400160405280600f81526020016e2430b5b4a1b430b4b7102a37b5b2b760891b8152506040518060400160405280600481526020016348414b4960e01b81525081600390816100839190610253565b5060046100908282610253565b506100a0915060009050826100d2565b506100cb7f9f2df0fed2c77648de5860a4cc508cd0818c85b8b8a1ab4ceeef8d981c8956a6826100d2565b5050610312565b60008281526005602090815260408083206001600160a01b038516845290915281205460ff166101785760008381526005602090815260408083206001600160a01b03861684529091529020805460ff191660011790556101303390565b6001600160a01b0316826001600160a01b0316847f2f8788117e7eff1d82e926ec794901d17c78024a50270940304540a733656f0d60405160405180910390a450600161017c565b5060005b92915050565b60006020828403121561019457600080fd5b81516001600160a01b03811681146101ab57600080fd5b9392505050565b634e487b7160e01b600052604160045260246000fd5b600181811c908216806101dc57607f821691505b6020821081036101fc57634e487b7160e01b600052602260045260246000fd5b50919050565b601f82111561024e576000816000526020600020601f850160051c8101602086101561022b5750805b601f850160051c820191505b8181101561024a57828155600101610237565b5050505b505050565b81516001600160401b0381111561026c5761026c6101b2565b6102808161027a84546101c8565b84610202565b602080601f8311600181146102b5576000841561029d5750858301515b600019600386901b1c1916600185901b17855561024a565b600085815260208120601f198616915b828110156102e4578886015182559484019460019091019084016102c5565b50858210156103025787850151600019600388901b60f8161c191681555b5050505050600190811b01905550565b611362806103216000396000f3fe608060405234801561001057600080fd5b50600436106101375760003560e01c80633dd1eb61116100b8578063a217fddf1161007c578063a217fddf14610288578063a9059cbb14610290578063adc58ccd146102a3578063d5391393146102c3578063d547741f146102d8578063dd62ed3e146102eb57600080fd5b80633dd1eb611461021e57806369e2f0fb1461023157806370a082311461024457806391d148541461026d57806395d89b411461028057600080fd5b8063248a9ca3116100ff578063248a9ca3146101b15780632f2ff15d146101d4578063313ce567146101e95780633544bb8a146101f857806336568abe1461020b57600080fd5b806301ffc9a71461013c57806306fdde0314610164578063095ea7b31461017957806318160ddd1461018c57806323b872dd1461019e575b600080fd5b61014f61014a366004610d9b565b610324565b60405190151581526020015b60405180910390f35b61016c61035b565b60405161015b9190610e12565b61014f610187366004610e41565b6103ed565b6002545b60405190815260200161015b565b61014f6101ac366004610e6b565b610405565b6101906101bf366004610ea7565b60009081526005602052604090206001015490565b6101e76101e2366004610ec0565b610429565b005b6040516012815260200161015b565b6101e7610206366004610f35565b610454565b6101e7610219366004610ec0565b61062b565b6101e761022c366004611016565b610663565b6101e761023f366004611016565b610686565b610190610252366004611016565b6001600160a01b031660009081526020819052604090205490565b61014f61027b366004610ec0565b6106a9565b61016c6106d4565b610190600081565b61014f61029e366004610e41565b6106e3565b6102b66102b1366004610ea7565b6106f1565b60405161015b9190611031565b61019060008051602061130d83398151915281565b6101e76102e6366004610ec0565b61090c565b6101906102f93660046110aa565b6001600160a01b03918216600090815260016020908152604080832093909416825291909152205490565b60006001600160e01b03198216637965db0b60e01b148061035557506301ffc9a760e01b6001600160e01b03198316145b92915050565b60606003805461036a906110d4565b80601f0160208091040260200160405190810160405280929190818152602001828054610396906110d4565b80156103e35780601f106103b8576101008083540402835291602001916103e3565b820191906000526020600020905b8154815290600101906020018083116103c657829003601f168201915b5050505050905090565b6000336103fb818585610931565b5060019392505050565b60003361041385828561093e565b61041e8585856109bc565b506001949350505050565b60008281526005602052604090206001015461044481610a1b565b61044e8383610a28565b50505050565b60008051602061130d83398151915261046c81610a1b565b600083838b8b8b8b8b8b60405160200161048d98979695949392919061110e565b6040516020818303038152906040528051906020012090506104af8c8c610abc565b6040518060a001604052808b8b8080601f016020809104026020016040519081016040528093929190818152602001838380828437600092019190915250505090825250604080516020601f8c018190048102820181019092528a815291810191908b908b9081908401838280828437600092019190915250505090825250604080516020601f8a0181900481028201810190925288815291810191908990899081908401838280828437600092018290525093855250505060208083018f90524260409384015284825260069052208151819061058d90826111b2565b50602082015160018201906105a290826111b2565b50604082015160028201906105b790826111b2565b5060608201518160030155608082015181600401559050508b6001600160a01b0316817f94c8648cf364c65360c11dc59766e048656fe6552db15903c397f3f5a407ecd98d8d8d8d8d8d8d604051610615979695949392919061129b565b60405180910390a3505050505050505050505050565b6001600160a01b03811633146106545760405163334bd91960e11b815260040160405180910390fd5b61065e8282610af6565b505050565b600061066e81610a1b565b61065e60008051602061130d83398151915283610a28565b600061069181610a1b565b61065e60008051602061130d83398151915283610af6565b60009182526005602090815260408084206001600160a01b0393909316845291905290205460ff1690565b60606004805461036a906110d4565b6000336103fb8185856109bc565b6107236040518060a0016040528060608152602001606081526020016060815260200160008152602001600081525090565b60008281526006602052604090819020815160a0810190925280548290829061074b906110d4565b80601f0160208091040260200160405190810160405280929190818152602001828054610777906110d4565b80156107c45780601f10610799576101008083540402835291602001916107c4565b820191906000526020600020905b8154815290600101906020018083116107a757829003601f168201915b505050505081526020016001820180546107dd906110d4565b80601f0160208091040260200160405190810160405280929190818152602001828054610809906110d4565b80156108565780601f1061082b57610100808354040283529160200191610856565b820191906000526020600020905b81548152906001019060200180831161083957829003601f168201915b5050505050815260200160028201805461086f906110d4565b80601f016020809104026020016040519081016040528092919081815260200182805461089b906110d4565b80156108e85780601f106108bd576101008083540402835291602001916108e8565b820191906000526020600020905b8154815290600101906020018083116108cb57829003601f168201915b50505050508152602001600382015481526020016004820154815250509050919050565b60008281526005602052604090206001015461092781610a1b565b61044e8383610af6565b61065e8383836001610b63565b6001600160a01b0383811660009081526001602090815260408083209386168352929052205460001981101561044e57818110156109ad57604051637dc7a0d960e11b81526001600160a01b038416600482015260248101829052604481018390526064015b60405180910390fd5b61044e84848484036000610b63565b6001600160a01b0383166109e657604051634b637e8f60e11b8152600060048201526024016109a4565b6001600160a01b038216610a105760405163ec442f0560e01b8152600060048201526024016109a4565b61065e838383610c38565b610a258133610d62565b50565b6000610a3483836106a9565b610ab45760008381526005602090815260408083206001600160a01b03861684529091529020805460ff19166001179055610a6c3390565b6001600160a01b0316826001600160a01b0316847f2f8788117e7eff1d82e926ec794901d17c78024a50270940304540a733656f0d60405160405180910390a4506001610355565b506000610355565b6001600160a01b038216610ae65760405163ec442f0560e01b8152600060048201526024016109a4565b610af260008383610c38565b5050565b6000610b0283836106a9565b15610ab45760008381526005602090815260408083206001600160a01b0386168085529252808320805460ff1916905551339286917ff6391f5c32d9c69d2a47ea670b442974b53935d1edc7fd64eb21e047a839171b9190a4506001610355565b6001600160a01b038416610b8d5760405163e602df0560e01b8152600060048201526024016109a4565b6001600160a01b038316610bb757604051634a1406b160e11b8152600060048201526024016109a4565b6001600160a01b038085166000908152600160209081526040808320938716835292905220829055801561044e57826001600160a01b0316846001600160a01b03167f8c5be1e5ebec7d5bd14f71427d1e84f3dd0314c0f7b2291e5b200ac8c7c3b92584604051610c2a91815260200190565b60405180910390a350505050565b6001600160a01b038316610c63578060026000828254610c5891906112eb565b90915550610cd59050565b6001600160a01b03831660009081526020819052604090205481811015610cb65760405163391434e360e21b81526001600160a01b038516600482015260248101829052604481018390526064016109a4565b6001600160a01b03841660009081526020819052604090209082900390555b6001600160a01b038216610cf157600280548290039055610d10565b6001600160a01b03821660009081526020819052604090208054820190555b816001600160a01b0316836001600160a01b03167fddf252ad1be2c89b69c2b068fc378daa952ba7f163c4a11628f55a4df523b3ef83604051610d5591815260200190565b60405180910390a3505050565b610d6c82826106a9565b610af25760405163e2517d3f60e01b81526001600160a01b0382166004820152602481018390526044016109a4565b600060208284031215610dad57600080fd5b81356001600160e01b031981168114610dc557600080fd5b9392505050565b6000815180845260005b81811015610df257602081850181015186830182015201610dd6565b506000602082860101526020601f19601f83011685010191505092915050565b602081526000610dc56020830184610dcc565b80356001600160a01b0381168114610e3c57600080fd5b919050565b60008060408385031215610e5457600080fd5b610e5d83610e25565b946020939093013593505050565b600080600060608486031215610e8057600080fd5b610e8984610e25565b9250610e9760208501610e25565b9150604084013590509250925092565b600060208284031215610eb957600080fd5b5035919050565b60008060408385031215610ed357600080fd5b82359150610ee360208401610e25565b90509250929050565b60008083601f840112610efe57600080fd5b50813567ffffffffffffffff811115610f1657600080fd5b602083019150836020828501011115610f2e57600080fd5b9250929050565b60008060008060008060008060008060c08b8d031215610f5457600080fd5b610f5d8b610e25565b995060208b0135985060408b013567ffffffffffffffff80821115610f8157600080fd5b610f8d8e838f01610eec565b909a50985060608d0135915080821115610fa657600080fd5b610fb28e838f01610eec565b909850965060808d0135915080821115610fcb57600080fd5b610fd78e838f01610eec565b909650945060a08d0135915080821115610ff057600080fd5b50610ffd8d828e01610eec565b915080935050809150509295989b9194979a5092959850565b60006020828403121561102857600080fd5b610dc582610e25565b602081526000825160a0602084015261104d60c0840182610dcc565b90506020840151601f198085840301604086015261106b8383610dcc565b92506040860151915080858403016060860152506110898282610dcc565b91505060608401516080840152608084015160a08401528091505092915050565b600080604083850312156110bd57600080fd5b6110c683610e25565b9150610ee360208401610e25565b600181811c908216806110e857607f821691505b60208210810361110857634e487b7160e01b600052602260045260246000fd5b50919050565b878982376000888201600081528789823760009088019081528587823760009086019081528385823760009301928352509098975050505050505050565b634e487b7160e01b600052604160045260246000fd5b601f82111561065e576000816000526020600020601f850160051c8101602086101561118b5750805b601f850160051c820191505b818110156111aa57828155600101611197565b505050505050565b815167ffffffffffffffff8111156111cc576111cc61114c565b6111e0816111da84546110d4565b84611162565b602080601f83116001811461121557600084156111fd5750858301515b600019600386901b1c1916600185901b1785556111aa565b600085815260208120601f198616915b8281101561124457888601518255948401946001909101908401611225565b50858210156112625787850151600019600388901b60f8161c191681555b5050505050600190811b01905550565b81835281816020850137506000828201602090810191909152601f909101601f19169091010190565b8781526080602082015260006112b560808301888a611272565b82810360408401526112c8818789611272565b905082810360608401526112dd818587611272565b9a9950505050505050505050565b8082018082111561035557634e487b7160e01b600052601160045260246000fdfe9f2df0fed2c77648de5860a4cc508cd0818c85b8b8a1ab4ceeef8d981c8956a6a264697066735822122070731b5cd3422a9b9bf52e0757a031d8b6c95abb07ecb589b8f5f801e92358ed64736f6c63430008190033",
  "linkReferences": {},
  "deployedLinkReferences": {}
}